:020000040800F2
:1000000028FE01247103000877570008F50900084D
:1000100075570008150F0008F96800080000000077
:10002000000000000000000000000000AD02000819
:1000300041110008000000000903000841600008A9
:100040008B0300088B0300088B0300088B03000858
:100050008B0300088B0300088B0300088B03000848
:100060008B0300088B0300088B0300088B03000838
:100070008B0300088B0300088B0300088B03000828
:100080008B0300088B0300088B0300088B03000818
:100090008B0300088B0300088B0300088B03000808
:1000A0008B0300088B0300088B0300088B030008F8
:1000B000DD6100088B0300088B0300088B03000838
:1000C0008B0300088B0300088B030008AD5E00085B
:1000D0008B0300084D6600088B0300085966000872
:1000E000851700088B030008000000008B03000840
:1000F0008B0300088B0300088B0300088B030008A8
:100100008B0300088B0300088B0300088B03000897
:100110008B0300088B0300088B0300087162000842
:100120008B0300088B030008950F0008A10F00083F
:100130008B030008451100088B0300088B0300089F
:1001400000000000000000000000000000000000AF
:100150008B0300088B0300088B0300088B03000847
:100160008B0300088B0300088B0300088B03000837
:100170008B0300088B0300088B03000800000000BD
:100180008B0300088B0300088B0300088B03000817
:100190008B0300088B0300088B0300088B03000807
:1001A0008B0300088B0300088B0300088B030008F7
:1001B0008B0300088B0300088B0300088B030008E7
:1001C0008B0300088B0300088B0300088B030008D7
:1001D0008B0300088B0300088B0300088B030008C7
:1001E0008B0300088B0300088B0300088B030008B7
:1001F0008B0300088B0300088B0300088B030008A7
:100200008B0300088B0300088B0300088B03000896
:100210008B0300088B0300088B0300088B03000886
:100220008B0300088B030008AD5400080000000099
:100230008B0300088B030008000000008B030008FC
:100240008B0300088B0300088B0300088B03000856
:100250008B0300088B0300088B0300088B03000846
:100260008B0300088B0300088B0300088B03000836
:100270008B0300088B0300088B03000800000000BC
:100280008B030008000000008B0300080000000042
:10029000000000008B030008DFF80CD000F0FEFA2D
:1002A0000048004735AF000828FE01242D4B19688F
:1002B0000868B0E8F04F80F30988BFF36F8F4FF004
:1002C000000080F3118870470000000008480068B3
:1002D000006880F308884FF0000080F3148862B64D
:1002E00061B6BFF34F8FBFF36F8F00DF00BF00BF5A
:1002F00008ED00E0DFF80C00016841F470010160D6
:10030000704700BF88ED00E0EFF30980BFF36F8F07
:10031000144B1A681EF0100F08BF20ED108A20E958
:10032000F04F106009B44FF0400072B680F31188AE
:10033000BFF34F8FBFF36F8F62B614F0C1FC4FF065
:10034000000080F3118809BC19680868B0E8F04F14
:100350001EF0100F08BFB0EC108A80F30988BFF3BD
:100360006F8F7047941B0024EFF3058070470000E7
:100370000648804706480047FEE7FEE7FEE7FEE73F
:10038000FEE7FEE7FEE7FEE7FEE7FEE7596100084D
:10039000990200082DE9F05F0546002092469B4631
:1003A00088460646814640241BE02846414647468B
:1003B000224600F0ABF853465A46C01A914110D37A
:1003C00011461846224600F092F82D1A67EB0108F4
:1003D0004F4622460120002100F089F817EB000962
:1003E0004E41201EA4F10104DFDC484631462A4676
:1003F0004346BDE8F09F000000487047705E01086A
:1004000010B5431A934209D28318881803E010F8F4
:10041000011D03F8011D521EF9D210BD40EA01036F
:100420009B0703D009E008C9121F08C0042AFAD2AA
:1004300003E011F8013B00F8013B521EF9D210BD58
:10044000D2B201E000F8012B491EFBD27047002216
:10045000F6E710B513460A4604461946FFF7F0FFC3
:10046000204610BD30B505462A460B4612F8010B52
:1004700013F8014B08B1A042F8D01CB1002802D0FB
:100480006D1CF1E7284630BD421C10F8011B002905
:10049000FBD1801A704730B504460020034600E0C7
:1004A0005B1C934203D2E05CCD5C401BF8D030BDB6
:1004B000034611F8012B00F8012B002AF9D1184648
:1004C000704730B50B46014600202022012409E088
:1004D00021FA02F59D4205D303FA02F5491B04FAFD
:1004E00002F52844151EA2F10102F1DC30BD202ADC
:1004F00004DB203A00FA02F1002070479140C2F17B
:10050000200320FA03F3194390407047202A04DBAC
:10051000203A21FA02F00021704721FA02F3D0407C
:10052000C2F1200291400843194670472DE9FE4F61
:10053000804681EA0300C00F0C46009021F0004184
:1005400023F00045B8EB0200A94105D24046214600
:1005500090461C460B46024623F00040104347D00D
:10056000270DC7F30A00C3F30A510290401A019005
:1005700040286BDAC3F3130040F4801B00989246C6
:1005800020B10023D2EB030A63EB0B0B0198594611
:10059000C0F140025046FFF7AAFF06460D465046FE
:1005A0005946019A00F08CF910EB080061410024D3
:1005B00087EA115284EAE7731A4340D0009A62B383
:1005C000019A012A4FEA075215DC001B61EB020178
:1005D0004FF0004202EA0752CDE90042001C41F50B
:1005E000801132462B4600F08CF903B0BDE8F08F45
:1005F00040462146F9E7001B61EB0201001C41F572
:10060000801300185B412018A2F5001747EB030187
:1006100040EAD570B6196D4111E06D084FEA360613
:1006200045EAC0754FEA0752001B61EB0201001C4E
:1006300041F5801149084FEA300000195141324616
:100640002B4603B0BDE8F04F00F04CB900980122F2
:1006500040000023D0EB020263EBE07300982146D8
:100660004FEAE074B8EB000061EB0401E9E783F0C6
:1006700000435BE781F0004158E72DE9FE4F81EA36
:10068000030404F0004421F0004100944FF0000BFB
:1006900023F0004350EA01045ED052EA03045BD029
:1006A000C3F30A54C1F30A552C44A4F2F334019461
:1006B000A0FB0254C1F3130141F48011C3F31303EF
:1006C00043F4801301FB024400FB034E840A970AA3
:1006D00044EA815447EA8357A4FB076802958D0AD0
:1006E00005FB07854FEA932C04FB0C542705029D5C
:1006F0004FEA065847EA1637B5EB08056EEB070CCC
:10070000870E920E47EA811742EA8312A7FB020185
:10071000B6EB0B0164EB00042B0D43EA0C335E18BF
:1007200044EB1C50DA465146E7FB0201C5F31304C3
:100730004FEA0B3343EA14534FEA0432019C43EA75
:100740000603A4F10C040294009CCDE900B400F06F
:10075000D8F803B0BDE8F08F00200146F9E72DE995
:10076000F04D81EA030404F0004B21F000451446EB
:100770004FF0000A23F0004150EA050220D054EA6D
:1007800001021DD0C5F30A570246C5F31303C1F396
:100790001300C1F30A5640F4801543F48013A7EB0D
:1007A0000608101BD64608F2FD3873EB050002D38D
:1007B00008F1010801E092185B41B8F1000F03DA7B
:1007C00000200146BDE8F08D00204FF48011064660
:1007D00084460EE0171B73EB050705D3121B63EB72
:1007E000050306434CEA010C49084FEA3000921811
:1007F0005B4150EA0107EDD152EA030012D082EAD0
:10080000040083EA0501084305D0101BAB4106D262
:100810000122002306E000224FF0004302E06FF0C7
:10082000010253101AEB06004CEB085110EB0A00C2
:1008300041EB0B01BDE8F04D00F054B8C1F30A5292
:10084000C1F3130140F2FF3341F480119A4202DAFE
:1008500000200146704740F233439A42A2F23342ED
:1008600002DC5242FFF752BEFFF741BE30B5041E14
:1008700071F1000404DB4FF00044404264EB0101DD
:10088000141E73F1000405DB1C464FF00043524276
:1008900063EB0403994208BF904230BD064C074DFC
:1008A00006E0E06840F0010394E807009847103440
:1008B000AC42F6D3FFF7F4FC60600108B0600108B9
:1008C000202A06DBCB17203A41FA02F043EAE07314
:1008D00006E041FA02F3D040C2F120029140084301
:1008E0001946704710B5141E73F1000408DA401C55
:1008F00041F1000192185B411A4301D120F001003F
:1009000010BD2DE9F04D92469B4611B1B1FA81F22E
:1009100002E0B0FA80F220329046FFF7E8FD04468C
:100920000F4640EA0A0041EA0B0153465A46084383
:1009300013D0114653EA010019D0C8F140025046C5
:10094000FFF7E4FD05460E46504659464246FFF77E
:10095000CEFD084305D0012004E020463946BDE81D
:10096000F08D0020054346EAE0762C4337430A9891
:100970006305E40AA0EB08000022FD0A44EA47549C
:100980000A3002D500200146E9E701051019694146
:10099000DDE9084500196941BDE8F04DA2E770B5F1
:1009A0008C1810F8015B15F0070301D110F8013B1A
:1009B0002A1106D110F8012B03E010F8016B01F8A1
:1009C000016B5B1EF9D12B0705D40023521E0DD4F9
:1009D00001F8013BFAE710F8013BCB1A921C03E047
:1009E00013F8015B01F8015B521EF9D5A142D8D37F
:1009F000002070BD1EF0040F0CBFEFF30880EFF372
:100A0000098004F019BC00001A4800B587B00168DD
:100A100041F001010160016801F0010105910168E7
:100A200041F002010160016801F0020105910168D5
:100A300041F0040101600068694600F0040005907F
:100A400001200190029003200390282000900A4882
:100A500002F00EF84FF4807000900848694602F0EA
:100A600007F84FF4035000900548694602F000F87B
:100A700007B000BDE04402580000025800040258CC
:100A80000008025810B586B041F28831194C012394
:100A9000174ACDE900014021204606F08BFF164998
:100AA000086840F0040008600868134900F004007A
:100AB00005901431086840F00200086008680021C1
:100AC00000F0020005900D48CDE901014FF40050FF
:100AD000039169460090204601F0CAFF00220221DE
:100AE000282002F0EBFA282002F0DAFA06B010BD56
:100AF0000004014000080258E0440258000021119F
:100B0000044800681023044A0449A2F58D5004F0FB
:100B100035B80000641B0024C0CF0024705B0108BE
:100B200010B5104C00228021204602F099F80122D5
:100B30002046802102F094F801222046802102F014
:100B40008FF801222046802102F08AF801222046F7
:100B5000802102F085F800222046BDE81040802167
:100B600002F07EB8000802580E4807220C490160C6
:100B70004FF00051C161002181604161C0E9032152
:100B800001624162C0E90A12120402634FF08062FE
:100B90008261416351014165490A416003F056BEDB
:100BA0000030014020BE0024024900B101204870FD
:100BB0007047000098BF00242049072870B5204CDA
:100BC0004FF480751F4E087034D2DFE800F0330414
:100BD000060814252C0000221FE0002224E0002239
:100BE0002046202102F03CF801222946304602F03E
:100BF00037F801220AE001222046202102F030F8D5
:100C000000222946304602F02BF800222046BDE89B
:100C10007040082102F024B801222046202102F071
:100C20001FF80022E1E701222046202102F018F8F7
:100C30000122E6E7002008700246DDE798BF0024A5
:100C40000000025800040258034940200880088030
:100C50000880891E088070471A08025810B504469B
:100C600000F012F8FFF75CFFFFF7EEFF05490022E6
:100C700020460A804A808A808A71BDE81040FFF7CA
:100C800001BF0000AABF002410B586B042F2107167
:100C9000134C4FF47A70114A0123CDE90001402131
:100CA000204606F087FE0E484022183002800D498B
:100CB000086840F0040008600868694600F0040015
:100CC00005900020019000920290204601F0D0FE95
:100CD000172002F0D4F906B010BD00000004014056
:100CE00000080258E04402581CB59FED760A764889
:100CF0004FF40041754F8DED000A754D07F1400C22
:100D00008DED010A81600020DFED720ADFF8C8E195
:100D1000A5F1600404F14009824604F1B008BEF870
:100D20001C614FF000516A4A803A42F8201040326C
:100D300044F820A042F820A0684A02EB800282ED2D
:100D40006E0A49F820A047F820A00CF800A0604BDC
:100D5000C3466149203345F820A001EB800143F8E8
:100D600020A048F820A091ED181A02F58063401CDD
:100D7000C0EE811A0828C3EDE61AD1F8C411B6FBFB
:100D8000F1F1C2F82811CCD355484FF0FF3100687B
:100D900014F0E6FA0128F7D15349524809680027B0
:100DA000DFF8348100EB4106002508EB0500B6F9B9
:100DB000002090F84500032801D0E8B35DE0B8F8C2
:100DC0001C01B0F5484F35D0B0F5C84F09D0B0F58B
:100DD000485F12D0B0F5C85F17D0B0F5486F14D097
:100DE00028E059F8250045F2E20C831845F2B3706B
:100DF000A3FB003054F8250012E059F8250043F217
:100E000046238018A0FB033006E059F8250083181C
:100E100043F24620A3FB003054F8250049F6733C0A
:100E200000FB0CF018184FEA204044F8250049F860
:100E300025200246264900E01DE001F12001274B54
:100E400003EB850351F8250000F1010041F825006E
:100E5000D3F82831984210D341F825A05BF825102B
:100E6000E8B200EE102A491C4BF82510B8EEC00A73
:100E700005F09AFC01E0144882606D1CB61C082D38
:100E800093D3114DE868401CE860B8F81C1181420A
:100E900012D804F029FE0E4B00205A46514620334A
:100EA00042F8201043F82010401C0828F8D3E960CD
:100EB0006A680121914369607F1CC82FFFF474AFF9
:100EC00062E70000000000002C1B0024A43D002469
:100ED000745E00240000004720190024201D002417
:100EE00018190024000000246C1B0024084810B5C9
:100EF000407830B1012807D0022807D106F012FE51
:100F000004E006F06FFE01E006F04AFE012010BD8D
:100F1000A4350024FEE70000F0B5BFF34F8FBFF308
:100F20006F8F1A4900200860BFF34F8FBFF36F8F98
:100F3000174C216841F400312160BFF34F8FBFF39C
:100F40006F8F134970310860BFF34F8F081F00681F
:100F500043F6FF750D4E1036C0F34E31C0F3C90392
:100F600005EA4112184642EA80773760401EFAD2FD
:100F7000491EF5D2BFF34F8F206840F480302060C7
:100F8000BFF34F8FBFF36F8FF0BD000050EF00E055
:100F900014ED00E00148C06F00F0C8BC20BE002482
:100FA0000148806F00F0C2BC20BE002401681823F5
:100FB000CAB2103AB2FBF3F2054B6FF30901032AF0
:100FC0009B5CC36500D9091D816508467047000018
:100FD000925B010810B512490123026854188C2C49
:100FE000D1B20AD814220839B1FBF2F10D4A02EB52
:100FF000810202660B4A80320EE018241039B1FBE0
:10100000F4F1094C2244A82A00D80831074A02EB1F
:1010100081020266054A80328B40C0E9192310BD67
:10102000F8ABFDA700580258F0FBFDBF00080240D6
:1010300010B5017903684A1E072A14D80A4C2344C4
:101040008C2B06D8094B03EB8101C166074944315B
:1010500005E0074B03EB8101C16605494431016797
:1010600001219140416710BDF8ABFDA7FC58025823
:10107000FC080240014610B500208B694FF0C07497
:101080008A6A53B1B3F5005F15D072B1012A0CD052
:10109000022A0AD0032A09D104E01AB1012A06D093
:1010A000022A03D1C96AC90100D5012010BDC96A4D
:1010B000A142FAD010BD002AF7D0012AF2D0022AAC
:1010C000F3D0032AF3D010BDF0B5D0E91964856DD3
:1010D0007460C46E14B1D0E91C466660154E046895
:1010E0002644B6F5956F11D890F85C603F24B44063
:1010F000AC600468256825F4802512E09A600068D9
:10110000C160F0BD99600068C260F0BD0A4D2C441A
:101110008C2CFAD8094C2568012690F85C70BE40EA
:1011200035432560046863608368402B0368E9D118
:10113000E4E70000F0FFFDBFF8ABFDA70454025840
:1011400070470000014801F042B8000048E3012464
:1011500070B5A2B006460024694601258DF80450FA
:10116000680306908DF80F504FF4C3608DF80E5051
:101170000D9020208DF81D408DF80C4009948DF8BD
:101180001F4012948DF832508DF828408DF8605031
:1011900017904FF040508DF838400F9402948DF81E
:1011A00061408DF81C4014948DF862400B948DF8CA
:1011B0001E500090A8038DF811508DF840408DF816
:1011C0003140059002208DF812408DF8564016905F
:1011D00030468DF820508DF854408DF830408DF811
:1011E00010508DF80D408DF8554011948DF84C50ED
:1011F00000F0F6F91B9569058DF871404FF4067003
:101200008DF8685019948DF880408DF870401F91CA
:101210008DF878401D9119A98DF8814021903046B4
:1012200000F08EF922B070BD0020704701F01EBDA5
:10123000024810B501F090FA002010BD48E30124E7
:1012400013460A460146044810B501F032FA002858
:1012500001D04FF0FF3010BD48E3012413460A4689
:101260000146044810B501F0B7FB002801D04FF04B
:10127000FF3010BD48E301242DE9F047846A00F1F6
:10128000180692468B680027254656F82420D2F887
:101290000CC0BCF1000F63DB91F800805FEA487876
:1012A00037D5D1F824806FF30F0C4CEA080C4CF4BE
:1012B000803CC2F80CC0D0F800C0DCF8608048F474
:1012C0008018CCF8608091F800C05FEA0C7C20D5D3
:1012D000B1F82CC0A2F80AC0D2F80CC04CF4003C03
:1012E000C2F80CC0D1F830802CF4402C4CEA080C29
:1012F000C2F80CC0D0F800C0DCF8648048F4801854
:10130000CCF864800068D0F850C04CF0806CC0F815
:1013100050C00878C0060BD59068D1F818C06FF39C
:101320000D0040EA0C009060D06840F08060D06012
:10133000087810F0140F14D0D068641C042C40F00E
:101340004040D06000D3241F012756F82420D068E5
:10135000002806DA56F82500C16821F00041C16076
:101360008DE018687F1C10604FF000099068D3F87A
:1013700004C06FF30D0040EA0C009060D3F80880C1
:10138000DFF8B8C1B8F1000F0BD04346D8F80080A1
:10139000C2F8048000EA0C00B3F8048040EA084078
:1013A00003E000EA0C00C2F8049090600878C006E0
:1013B000D0680FD5B1F8208020F4F00040EAC84092
:1013C000D060D1F81C806FF3110040EA080040F4AF
:1013D00080201CE0D1F804806FF30E0040EA080082
:1013E000D06091F800805FEAC87806D0D1F8148008
:1013F00020F4403040EA0800D0600878800607D525
:10140000D068D1F8108020F0406040EA0800D06039
:101410000878400707D59068D1F8288020F440402C
:1014200040EA08009060D06820F0804040F0204002
:10143000D06091F800805FEA887869D5D1F80C8097
:1014400020F0607040EA080061E0641C042C00D3C6
:10145000241F56F82420D068002813DA56F82510E7
:1014600000200AE0CA686D1C042D22F00042CA6008
:1014700000D32D1F401C56F82510B842F2D302208D
:10148000BDE8F08718687F1C10609068D3F804806E
:101490006FF30D0040EA08009060D3F80880B8F1BF
:1014A000000F0BD04346D8F80080C2F8048000EA51
:1014B0000C00B3F8048040EA084003E000EA0C00A6
:1014C000C2F8049090600878C006D06808D5D1F8BA
:1014D0001C806FF3110040EA080040F4802011E006
:1014E000D1F804806FF30E0040EA0800D06091F854
:1014F00000805FEAC87815D0D1F8148020F440301D
:1015000040EA0800D06020F0804040F00040D06009
:101510009B68002B99D19068BAF1000F04D040F07D
:10152000004003E0D068EEE720F000409060D06813
:1015300040F08050D06000203461A1E7FFFF00C080
:1015400030B5026802F58052136847F60204A343DF
:101550000C68234313600A790B7B120342EAC333FE
:101560008A681343026802F5805254684DF20105FF
:10157000AC431C4354604B7B0A6A42EA0343026853
:1015800002F58052D2F80041124D2C401C43C2F8A3
:1015900000410A7D4B7F120142EA03330A6913437B
:1015A000026802F58052D2F804410B4D2C401C43D6
:1015B000C2F8044100688A69097F00F5805042EA58
:1015C000C171D0F80821054B1A400A43C0F8082120
:1015D00030BD000000C0FEFFEFEFC0FFFFFFC07F87
:1015E00030B50B688A680C7B1A430B79DB0643EA3B
:1015F000C4531A434B7B42EA83528B7B42EA4352E9
:10160000CB7B42EA03530A7C002A7CD0002243EAC7
:10161000C2434A7C002A78D0002243EA42428B7CB3
:1016200042EA03424B691A438B691A430B7F42EA31
:1016300003324B7F42EAC3238A7F002A66D000220E
:1016400043EA8222CB7F42EA432391F82020002AFA
:101650007ED0002243EA02224B6A1A4391F82830D6
:1016600042EA0313CA6A134302681468434D2C40CC
:101670001C43146091F83C2091F83830520642EA3D
:10168000036291F8303042EA834291F8313042EA05
:10169000434391F83220BAB3002243EA02434A6B33
:1016A000134302685468364D2C401C43546091F833
:1016B00040304A6C42EA03230268D46840F20F15B6
:1016C000AC431C43D46091F854300A6D42EA4303A2
:1016D00091F84C20EAB30022B1F84840D20142EA26
:1016E000044213430268146F4FF60D752C401C43DF
:1016F000146791F8553091F8562042EA4303026886
:10170000D2F8904003E02BE032E02BE02CE024F014
:1017100003041C43C2F890400268D2F8003D8C6D6F
:1017200023F072032343C2F8003D91F86020CB6D93
:1017300012B30022006843EA821291F8613091F8F6
:1017400062101B0143EAC1010A43D0F8301D01E0D9
:101750000CE00FE021F07B011143C0F8301D30BDDB
:10176000012254E7012258E7012269E7012271E7CB
:10177000012292E70122AFE70122DBE78380040028
:101780000080F8C04FF4005001F066B9002900D085
:10179000FEE7704730B5D1E901230D681A43D1E95E
:1017A000033423431A434B691A438B691A43D1E923
:1017B0000734496A012D056807D01A4322430A43BA
:1017C0006FF30E052A4302600AE025F4F84523432F
:1017D00029430B43416803606FF30E010A434260E3
:1017E000002030BD426942EA41014161002070475A
:1017F00018B5D1E900236FF01F041A438B68C9683C
:1018000004EB431343EA41210A43009202610020A2
:1018100018BD0000F0B5D1E900346FF00F055B1E74
:101820002E0105EB041423438C682F034FEA054C6B
:101830000D8A06EB04248E8A2343CC68097E4FF080
:101840007F4E012A07EB05450CEB06560EEB0161B6
:101850000CD082683F1107EB043423432B433343FE
:101860000B4302F07042134383600FE08768084A1D
:1018700017402203C468A2F5805232433A43826083
:101880002B430B4304F070442343C3600020F0BD9E
:10189000FF0F0FFF10B528B190F83510022903D0C3
:1018A00080214165012010BD1D4A4FF495630168F8
:1018B0008C189C4207D8042280F83520086820F054
:1018C0000100086029E00C6824F00E040C60016837
:1018D0000A440A6822F001020A60016E0A6822F4D2
:1018E00080720A6090F85C30012202FA03F10D4B1D
:1018F0001960D0E919134B60C16E31B10B6823F444
:1019000080730B60D0E91C134B60002180F8341009
:1019100080F83520016D01B18847002010BD00001E
:10192000F0FFFDBF04540258406D70472DE9F84F99
:101930000446A948002700974FF41651A56D00688A
:10194000B0FBF1FB2E680823DFF890824FF4956915
:1019500020684FF0010A00EB0801494576D894F859
:101960005C201946934033420FD0026812F0040FF6
:101970000BD0026822F00402026094F85C008140FF
:10198000A960606D40F00100606594F85C009449C6
:10199000814031420DD0206800EB08024A452CD826
:1019A000406910F0800F04D0A960606D40F0020023
:1019B00060658B4994F85C00C91C814031420DD0B0
:1019C000206800EB08024A45006807D810F0020FB3
:1019D00004D0A960606D40F00400606594F85C007C
:1019E00010218140314222D0206800EB08024A4594
:1019F000006804D800F0080003E00068D9E700F0B0
:101A00000400A0B1A96020680168490304D50068FA
:101A1000000308D5A16C07E00168C90503D401687B
:101A200021F008010160216C09B12046884794F833
:101A30005C002021814031423AD0206800EB08024E
:101A40004A45006803D800F0100002E065E000F0AD
:101A5000020068B3A96094F8350004282068016882
:101A600006D0490342D5006800031DD4616C1CE018
:101A700021F0160101602068416921F08001416177
:101A8000206C08B9A06C20B12068016821F0080121
:101A9000016094F85C103F208840A86084F834709E
:101AA00084F835A0216D31E0E16B09B1204688470B
:101AB000606D002875D0606DC00726D0042084F8C2
:101AC00035002068016821F001010160216800985B
:101AD000401C0090584502D80868C007F7D184F828
:101AE00034700868C0070DD003200CE00168C905F8
:101AF000DAD4016821F01001016084F8347084F8B0
:101B000035A0D1E7504684F83500E16C002961D05A
:101B100001B02046BDE8F04F0847324901448C2906
:101B200058D8314ED6F800C00425E16D05FA01F20F
:101B30001CEA020F06F1040213D0D0F800C05FEADD
:101B40004C7C0ED50168890603D4016821F004019C
:101B50000160106894F85C108D4028431060216C7F
:101B6000D4E7D6F800C0022505FA01F81CEA080FF0
:101B700018D0D0F800C05FEA8C7C13D501688906C4
:101B800007D4016821F00A01016084F8347084F8F8
:101B900035A0106894F85C108D4028431060E16B0C
:101BA000B4E717E035688B401D4213D00168090780
:101BB00010D5016821F00E0101601168504694F8BB
:101BC0005C300AFA03F319431160C4F854A084F896
:101BD000347098E7BDE8F88F881B0024F0FFFDBF44
:101BE00001008000F8ABFDA7005402582DE9F04732
:101BF000044601F03BF80646BCB15E492027206848
:101C000000254FF0010A4FF0030842184FF0400939
:101C10000221B2F5956F50D884F8345084F835100D
:101C2000016821F00101016009E00120BDE8F087B1
:101C300001F01CF8801B052801D9676579E0206850
:101C40000068C007F4D121680A684B480240D4E913
:101C500002031843D4E9043633431843A3691843F5
:101C6000E3691843236A18431043626A042A03D1C4
:101C7000D4E90B231A43104308602068406920F020
:101C80000701606A042840EA01060BD1A06A0643F6
:101C9000E06A38B12046FFF7EDF918B1C4F8549066
:101CA000504647E0206846612046FFF77FF994F8E8
:101CB0005C203F21914081602DE0304BC2188C2A7E
:101CC00035D884F8345084F83510026847F6F0713E
:101CD0008A43A168402925D0802925D00021E668C3
:101CE00041EAD601266941EAD601666941EAD60190
:101CF000A66941EAD601E66907EAD6063143266AB3
:101D000041EA161111430160206814211844B0FB08
:101D1000F1F08000E0652046FFF75CF9A0688028BC
:101D20000BD00BE01021DAE74FF48041D7E7C4F87D
:101D30005490404684F8350077E76560216E20793D
:101D40000860D4E9190141606068401E072808D87E
:101D50002046FFF76DF9E06E0560D4E91C01416093
:101D600002E0E56625676567656584F835A00020B3
:101D70005CE70000F0FFFDBF3F8010FEF8ABFDA761
:101D80002DE9F04104004FF0000514D094F8340020
:101D9000012812D0012084F8340094F83560002026
:101DA000012E0CD084F834004FF4006060650125EA
:101DB0002846BDE8F0810120FBE70220F9E7022672
:101DC00084F8356060654FF4956720681F4ED0F841
:101DD00000C02CF0010CC0F800C02046FFF774F9D9
:101DE00020688119B942016810D821F01E0141F024
:101DF000160101602068416941F080014161206C59
:101E000080B12068016841F008010AE021F00E016C
:101E100041F00A010160206C20B12068016841F0A6
:101E200004010160206E0168C90303D5016841F413
:101E300080710160E06E18B1016841F48071016049
:101E40002068016841F001010160B1E7F0FFFDBFCA
:101E500070B5044600F00AFF0546601C02D0044835
:101E60000078044400F002FF401BA042FAD370BD8A
:101E70007C1B002470B5026C00F12C03456C53F8F8
:101E8000221025B1DC6904B16D1C002423E001207F
:101E900070BD0E690E604FF08076CE604E692EB137
:101EA0004E698E60CE6846F00076CE60CE6846F011
:101EB0000046CE601E6A1EB1CE6846F08046CE60F7
:101EC0009E69761EA64205D9521C042A00D3121F11
:101ED00053F82210641CAC42DBD3006800F580503C
:101EE000C0F828110020986170BD704710B500EB54
:101EF0008104E46A0AB1042903D30121416508463B
:101F000010BD22602261E06840F08070E0604BB15B
:101F1000A36040F000706361E06040F00040E0606A
:101F2000002010BDE068F8E7704700297DD0026806
:101F3000126802F00C02CA6202681268C2F3001250
:101F400081F828200268126802F060024A62026882
:101F5000126842F30022521C81F8202002681268A5
:101F6000C2F34022CA770268126842F38022521CF0
:101F70008A7702681268C2F3C0224A770268126840
:101F8000C2F300320A770268126802F400528A61D2
:101F90000268126802F480424A6102681268C2F361
:101FA00000428A740268126842F34042521C4A742A
:101FB0000268126842F3C042521C0A740268126836
:101FC000C2F30052CA7302681268C2F340528A73A5
:101FD00002681268C2F380524A7302681268C2F340
:101FE000C0520A730268126802F0E0628A600268F6
:101FF0001268C2F3C0620A710268126802F0E0421D
:102000000A6002685268C2F30D024A6302685268AD
:1020100042F30042521C81F8322002685268C2F337
:10202000404281F83120026800E062E05268C2F369
:10203000804281F8302002685268C2F3006281F861
:10204000382002685268C2F34462CA630268D268E8
:10205000C2F3002281F840200268D26802F00F0229
:102060004A640268126FC2F3400281F85420026889
:10207000126F42F3C012521C81F84C200268126F9A
:1020800002F070020A650268126F120C8A6402681C
:10209000D2F8902002F0010281F856200268D2F8AE
:1020A0009020C2F3400281F855200268D2F8002D3A
:1020B00002F072028A650268D2F8302D02F0230223
:1020C000CA650268D2F8302DC2F3C00281F86220DE
:1020D0000268D2F8302DC2F3001281F86120006846
:1020E000D0F8300D40F38010401C81F860000020D3
:1020F0007047012070472DE9F043066C00F12C0871
:102100000746406C0C464FF0000958F8265018B9A5
:10211000384600F005FAE8B3002017E0696939B3E2
:10212000C4B32969216079696160A46894B369695D
:10213000216079696160E968761C042EC1F30E099B
:1021400000D3361FA468401C58F82650D8F8181041
:10215000491E8142E2D8ECB1E868C0F30E01A1EB60
:1021600009007969814205D32969C4E900100EE0AC
:102170002969DDE7696969B1296921607969616067
:10218000A16839B16A690A607A69801A48600020DA
:10219000BDE8F083FFE70120FAE770B500F12C04F9
:1021A0000D46D4E9056111B900F0BAF968B1A0692A
:1021B000761E3044042800D3001F54F82000C06865
:1021C000C0F30E002860002070BD012070BD70B506
:1021D0000446006800F58050D0F86011490612D519
:1021E000D0F8340140060ED5204600F099F90128B8
:1021F00002D1204600F08EFA206848F2400100F536
:102200008050C0F86011206800F58050D0F860114F
:10221000C9070DD0D0F83401C00709D0204600F01E
:10222000D8FB206848F2010100F58050C0F8601129
:10223000206800F58050D0F860114FF0E0054904A7
:102240002CD5D0F83411490428D5616D41F008012E
:102250006165D0F86011C90412D5D0F8602141F24F
:10226000021191430AD00021A165D0F8341121F464
:102270004041C0F8341184F851500CE00121F3E7DB
:10228000D0F860114FF4CD4333EA01020FD00021A2
:10229000A165C0F860312046FFF727FE2068D0F81E
:1022A000B0100026C1F34131032902D00AE0012118
:1022B000EEE7D0F8B800E06584F85150204600F011
:1022C00093F9E6652068D0F8B010C90608D5D0F8B3
:1022D000C00000F060002066204600F0E9F92666A4
:1022E0002068D0F8B010890608D5D0F8C00000F0FA
:1022F0000F0060662046FFF717FE66664FF0B0409D
:10230000D0F8A810490206D54FF48001C0F8A810F3
:10231000204600F05FFB70BDF8B5040003D094F8D0
:10232000510010B104E00120F8BD204600F05EF934
:10233000232084F851007048016841F002010160D7
:10234000006800F002000090207A08B14FF400000D
:1023500002F07EFD206800F58050016841F0010127
:10236000016000F083FCE02605464FF4FA7706E0B2
:1023700000F07CFC401BB84201D9042049E02068F1
:1023800000F580500068C007F2D12068D0F8000244
:1023900020F4706501F05AFC5849594A01449142B1
:1023A00002D245F4007516E05649574A014491425D
:1023B00002D245F440750EE05449554A0144914219
:1023C00009D3544908445449884202D245F48075DF
:1023D00001E045F480652068C0F8005201F036FC49
:1023E0004E49B0FBF1F02168401EC1F8DC002046E8
:1023F000FEF7AEFE206800F58050D0F8001121F401
:10240000E01141F40021C0F800116169880704D08F
:102410000120606584F8516085E7206800F58050F0
:10242000D0F8082147F6FE739A4342EA4101C0F80A
:10243000081100210A46E06801EB410300EBC300EC
:1024400004EB8103491C0260042942608260C2607F
:102450009861F0D3A2620323206800F58050C0F891
:102460002C312068E16800F58050C0F81411206814
:10247000E16800F58050C0F820110021206901EBCF
:10248000410500EBC50004EB8105491C02600429ED
:1024900042608260C26002614261E862EED3E26340
:1024A00022646264E264A264206800F58050C0F88F
:1024B00030312068216900F58050C0F81C11216876
:1024C000206901F580514830C1F828016068216811
:1024D0008088C1F8000360680178D0F8010041EA03
:1024E00000202168C1F804036265102084F85100BF
:1024F00084F852000020F8BDF444025800D3CEFE08
:10250000C0E1E40040F1E9FD40787D0100796CFC18
:10251000005A6202001F0AFA80F0FA0240420F00DD
:10252000F0B5C16B2C3000252C462B46866950F83F
:10253000212036B30020F0BD6D1CD60019D5641CD7
:10254000012C00D10B46491C042900D3091F50F867
:102550002120D268002A07DB520005D50122C26182
:10256000491C042900D3091F103080E81A000120FB
:10257000F0BD920013D501240B46491C11E050F820
:102580002120D268002A01DB042DD5D34CB350F8AA
:10259000232000214FF080764FF040771FE0491C48
:1025A000641C0429EBD3091FE9E715691560D6609F
:1025B00055690DB19560D760D56845F00045D56087
:1025C000D0F820C0BCF1000F02D045F08045D560A6
:1025D0005B1C042B00D31B1F491C50F82320A14275
:1025E000E3D300218161A5E7704700002C4800B5C6
:1025F00087B0016841F001010160016801F001014B
:102600000591016841F004010160016801F00401D5
:102610000591016841F0400101600068694600F0E1
:1026200040000590022003900190002002900B20B2
:102630000490862000901B4800F01AFA3220009087
:102640001948694600F014FA46F60400009017484D
:10265000694600F00DFA002207213D2000F02EFD12
:102660003D2000F01DFD0E480838016841F400418E
:102670000160016801F400410591016841F4803175
:102680000160016801F480310591016841F4003175
:102690000160006800F40030059007B000BD000044
:1026A000E04402580000025800080258001802587E
:1026B00070472DE9F041044600681F46D0F800320B
:1026C000DB0718D1D0F8003223F0787343EA415188
:1026D00021F4F81141EA024141F00D01C0F8001265
:1026E00000F0C4FA4FF47A76054607E000F0BEFA2F
:1026F000401BB04202D90120BDE8F0812068D0F82B
:102700000002C007F2D12068D0F8040280B238601D
:102710000020F1E7084808B56946006812F01FFD7F
:102720000098002807D005494FF080500860BFF39B
:102730004F8FBFF36F8F08BDC41C002404ED00E071
:1027400010B519B190F85220102A01D0012010BD07
:10275000FEF746FF002010BD70B505460068D0F8B2
:10276000000220F4706401F071FA1149114A014429
:10277000914202D244F4007416E00F490F4A01441A
:10278000914202D244F440740EE00D490D4A0144D6
:10279000914209D30C4908440C49884202D244F4BE
:1027A000807401E044F480642868C0F8004270BD81
:1027B00000D3CEFEC0E1E40040F1E9FD40787D01A8
:1027C00000796CFC005A6202001F0AFA80F0FA02DB
:1027D00010B590F851300021C26A102B01D00120B1
:1027E00010BD232380F851300023D468491C0429EC
:1027F00044F08044D46000D3091F5B1C00EB8102CD
:10280000042BD26AF1D30121C16401680A6842F045
:1028100002020A6001680A6842F001020A60016867
:10282000D1F8002D42F00102C1F8002D016801F538
:102830008051D1F8042142F00102C1F8042101685D
:1028400001F58051D1F8082142F00102C1F80821B8
:10285000016801F58051D1F8602142F48172C1F81C
:102860006021102180F85110222180F85210006858
:1028700000F58050D0F834114DF241021143C0F8F8
:102880003411002010BD10B590F85110C26AE9B3A0
:10289000232180F85110016801F58051D1F83431BD
:1028A00048F24104A343C1F83431016801F5805175
:1028B000D1F8043123F00103C1F80431016801F5B6
:1028C0008051D1F8083123F00103C1F808310168C3
:1028D0000B6823F001030B600168D1F8003D43F061
:1028E0000103C1F8003D01680B6823F002030B608F
:1028F0000021D368491C042923F08043D360F8D316
:102900000021C164102180F8511000E003E080F83C
:102910005210002010BD012010BD2DE9F0411546D8
:10292000044621B194F85100102804D04FE0606DA6
:1029300040F0010007E000222046FEF79DFC20B198
:10294000606D40F00200606541E0A06A04EB800128
:10295000401C04288E69A06201D3001FA06204EB12
:1029600080008169206800F58050C0F8201100F0D7
:102970007DF907464FF010081AE0206800F58050F6
:10298000D0F86001C0040BD5606D40F008006065B0
:10299000206800F58050D0F86001A065E02014E0C8
:1029A000681C05D000F062F9C01BA84208D83DB1F0
:1029B000F0680028E1DB84F851800020BDE8F08158
:1029C000606D40F004006065404684F851000120CD
:1029D000F4E770477047000070B505460068D0F80E
:1029E0000042E4071FD1D0F8000220F0787040EADE
:1029F0004150114920F4F81040EA024020F00C0048
:102A0000001D9AB2C1F8042240F00100C1F8000292
:102A100000F02CF94FF47A76044606E000F026F92F
:102A2000001BB04201D9012070BD2868D0F8000217
:102A3000C007F3D170BD0000008002400248016869
:102A400041F001010160704720040058B0F5005FBB
:102A500001D1FEF755B870474FF0B04110B5D1F82D
:102A60008820024203D0C1F88800FFF7EFFF10BDB5
:102A70002DE9F84F6C4C00224FF0B04A4FF0010B9B
:102A80004FF0030E4FF00F090B680BFA02F73B40B3
:102A9000BB4270D14D68022D01D0122D12D1D50844
:102AA00000EB850CDCF820605507ED0E09FA05F8FF
:102AB00026EA0806D1F8108008FA05F848EA060860
:102AC000CCF82080D0F80080560091F804C00EFAAF
:102AD00006F50CF0030C28EA05080CFA06FC4CEA93
:102AE000080CC0F800C0D1F804C0BCF1010F08D038
:102AF000BCF1020F05D0BCF1110F02D0BCF1120FD6
:102B000016D1D0F808C0D1F80C802CEA050C08FAD0
:102B100006F848EA0C08C0F80880D0F804C02CEA8F
:102B2000070C0F79C7F30017974047EA0C07476077
:102B3000C768AF438D68B5403D43C5604D68ED0043
:102B40006BD53A4D2E6846F002062E602D6822F0B5
:102B5000030606F1B04605F002050095D6F808C454
:102B600095072F0F09FA07F52CEA050C304DA842FE
:102B700002D100252EE050E02E4DA84201D10125C2
:102B800028E02D4DA84201D1022523E02B4DA8427B
:102B900001D103251EE02A4DA84201D1042519E0E8
:102BA000284DA84201D1052514E0274DA84201D1A6
:102BB00006250FE0254DA84201D107250AE0244D46
:102BC000A84201D1082505E0224DA84201D10925DE
:102BD00000E00A25BD4045EA0C05C6F80854256802
:102BE0004E689D43F60300D51D43256065684E6819
:102BF0009D43B60300D51D436560DAF80050564684
:102C00004F689D43FF0200D51D43356075684F68CE
:102C10009D43BF0200D51D437560521C102AFFF46E
:102C200033AFBDE8F88F000080000058F44402582C
:102C3000000002580004025800080258000C025814
:102C4000001002580014025800180258001C0258C4
:102C5000002002580024025842694A4042617047ED
:102C60000AB10183704741837047000001488068C2
:102C7000704700007C1B00240248816802781144E0
:102C8000816070477C1B0024032010B500F036FAE9
:102C90000F2000F007F808B1012010BD00F0EEF998
:102CA000002010BD00B50022014637208BB000F097
:102CB00005FA372000F0F4F91648016841F02001C8
:102CC0000160006809A900F020000890684600F043
:102CD0008DFF0598B0B100F0D3FF40000E490F4AB8
:102CE000B0FBF1F10E48026040F2E732491E41604C
:102CF0000021C0E90321816002F0B6F828B101206B
:102D00000BB000BD00F0BCFFE8E7054802F0C8F8D2
:102D1000F6E70000E844025840420F00001400406B
:102D2000D8BD00242DE9F84304465A4800270097EF
:102D30004FF416510068B0FBF1F6206800F57F51A2
:102D40008A09012505FA02F14FF0A44212680A42ED
:102D50007ED00168C9072AD0C168890727D5C16814
:102D600021F00201C160216888680206A26E02D4C7
:102D700042F0010201E042F00202A266820503D5A0
:102D8000A26E42F00402A266C20503D5A26E42F012
:102D90000802A266420503D5A26E42F01002A266A6
:102DA000000503D5A06E40F02000A0664D602068AD
:102DB0000168C90608D5C168890605D5102141609A
:102DC000A16C09B12046884720680168090708D529
:102DD000C168C90605D508214160E16C09B12046EA
:102DE0008847206801684FF00408490708D5C16882
:102DF000090705D5C0F80480216D09B12046884730
:102E000020680168890715D5C168490712D5C168CE
:102E100021F03E01C16094F83D00042828D02168CB
:102E20000220486084F83C7084F83D50616C09B120
:102E300020468847A06E00282AD084F83D8020686C
:102E4000C16821F00101C16021680098401C00E0C8
:102E50001EE0B042009002D8C868C007F5D184F8DF
:102E60003C70C868C00709D0032084F83D0007E023
:102E700084F83C7084F83D50A16D02E084F83D5028
:102E8000616D002904D001B02046BDE8F043084739
:102E9000BDE8F883881B002470B50446FFF7E6FE02
:102EA00005465CB1002684F83C60022084F83D00B1
:102EB0002068C16821F00101C1600CE0012070BDF3
:102EC000FFF7D4FE401B052805D94020A06603204B
:102ED00084F83D00F2E72068C068C007F0D12046C2
:102EE00002F0EAFAE66526666666A666012084F8C0
:102EF0003D00002070BD002310B580B190F83C402B
:102F0000012C0ED0012480F83C4090F83D40012C6B
:102F100009D00123002180F83C10184610BD012083
:102F200010BD022010BD0629F4D2DFE801F0030530
:102F300007090B0D4264EDE78264EBE7C264E9E741
:102F40000265E7E74265E5E78265E3E7F8B5040077
:102F5000069D0FD094F83C00012809D0012084F888
:102F60003C0094F83D600020012E05D084F83C0020
:102F70000220F8BD0120F8BD022684F83D60A0665D
:102F80002068C66826F00106C6602046009502F05B
:102F9000FDFA2068C16841F00601C160E06C20B113
:102FA0002068C16841F01001C160206D20B1206827
:102FB000C16841F00801C160A06C20B12068C168FF
:102FC00041F02001C1602068C16841F00101C16089
:102FD0006068B0F1804F04D12068C16841F480314D
:102FE000C1600020F8BD0000134A41781160111D36
:102FF00003780A1DE3B143680B60017BC37A0907BC
:1030000041EA0361837A41EAC341437B41EA834158
:10301000837B41EA4341C37B41EA0341437A41EA6E
:103020000321037A007841EA4301014311607047AC
:10303000002008601060704798ED00E0BFF35F8FDC
:103040000448016821F48031016002490020703198
:103050000860704724ED00E0074940F00100086077
:1030600005487038016841F480310160BFF34F8F2B
:10307000BFF36F8F7047000094ED00E070470028A9
:103080000DDB012100F01F0291404009800000F19A
:10309000E020C0F88011BFF34F8FBFF36F8F7047F0
:1030A000002809DB012100F01F0291404009800047
:1030B00000F1E020C0F80011704700000E4BF0B4A2
:1030C0001B68C3F30223C3F10704042C00D90424B2
:1030D0001D1D072D01D2002300E0DB1E012606FA8C
:1030E00004F56D1E0D409D409E40761E164045EA3B
:1030F0000601F0BC03F014BD0CED00E0064A00F040
:10310000070110684FF6FF03184040EA0120034909
:1031100008431060704700000CED00E00000FA0565
:103120000248016841F4807101607047004802580C
:1031300010B500F0BBFD084909684FF4807292FA9F
:10314000A2F201F47061B2FA82F2D140034A515CFA
:10315000C8400349086010BD184402589A5B010832
:10316000881B00242DE9F84F0446006800252E46F0
:10317000010104F12400FE4FDFF8F88300901DD513
:10318000606E50B1B0F5801F0CD0B0F5001F0ED0AE
:10319000B0F5401F1DD001250FE0386840F4003025
:1031A000386016E00221201D02F0E6FA03E00098E4
:1031B000022102F059FB05000BD02E462088C005E5
:1031C00023D5606D05281ED2DFE800F00C11161B18
:1031D0001B00D8F80010626E21F440111143C8F8AA
:1031E0000010EBE7386840F40030386009E0002157
:1031F000201D02F0C1FA03E00098002102F034FB28
:1032000005466DB100E001252E432088800528D5B4
:10321000A06D80281ED00CDC90B140280ED114E0A7
:10322000D8F80010626D21F007011143C8F80010B2
:10323000EBE7C02813D0B0F5807F10D001250FE058
:10324000386840F40030386009E00021201D02F0A9
:1032500093FA03E00098002102F006FB054685B1D1
:103260002E432088DFF8109340052CD5D4F8A40015
:10327000B0F5800F20D00DDCA0B1B0F5001F0FD14C
:1032800015E0D8F80010A26D21F4E0711143C8F8E0
:103290000010E6E7B0F5C00F13D0B0F5000F10D066
:1032A00001250FE0386840F40030386009E0002163
:1032B000201D02F061FA03E00098002102F0D4FA28
:1032C000054675B12E43208800052DD5D4F8A800F9
:1032D000B0F1007F21D00EDCA8B1B0F1807F10D119
:1032E00016E0D9F80010D4F8A42021F460011143AD
:1032F000C9F80010E7E7B0F1407F13D0B0F1806F5C
:1033000010D001250FE0386840F40030386009E043
:103310000021201D02F030FA03E00098002102F0A5
:10332000A3FA05466DB12E43206880011FD5A06C1D
:10333000D8B110280FD0202812D0302815D0012560
:1033400014E0D9F80010D4F8A82021F0E06111436E
:10335000C9F80010E8E7386840F40030386004E04D
:103360000221201D02F008FA05466DB12E43208887
:10337000C0042BD5E06DB0F5005F20D00DDCA0B10E
:10338000B0F5805F0FD115E07A48001F0168A26C8C
:1033900021F0300111430160E9E7B0F5405F13D03F
:1033A000B0F5804F10D001250FE0386840F40030B0
:1033B000386009E00021201D02F0DEF903E00098EA
:1033C000002102F051FA054685B12E432088800481
:1033D00029D5206EB0F5403F23D010DC08B3B0F5FE
:1033E000803F14D0B0F5003F0FD115E0D8F80010A1
:1033F000E26D21F4E0411143C8F80010E6E7B0F5B2
:10340000802F0ED0B0F5A02F0BD001250AE00121AE
:10341000201D02F0B1F903E00098012102F024FA26
:1034200005468DB12E43208840042AD5D4F8AC003F
:10343000B0F1405F23D010DC08B3B0F1805F14D04E
:10344000B0F1005F0FD115E0D8F80010226E21F422
:10345000E0211143C8F80010E5E7B0F1804F0ED02D
:10346000B0F1A04F0BD001250AE00121201D02F090
:1034700083F903E00098012102F0F6F905466DB1E9
:103480002E43208800041FD5E06ED8B1B0F1805FD4
:103490000ED0B0F1005F10D0012514E0D9F8001073
:1034A000D4F8AC2021F0E0411143C9F80010E8E75E
:1034B000386840F40030386004E00121201D02F03B
:1034C0005BF905466DB12E432068C0011ED5606CC6
:1034D000D0B101280ED0022811D0032814D0012524
:1034E00013E0D8F80010E26E21F040511143C8F803
:1034F0000010E9E7386840F40030386004E0022149
:10350000201D02F039F9054675B12E432068DFF819
:103510006CB040025AD51A48016841F480710160CC
:10352000FFF7A4FB82460EE01248001F0168626CA0
:1035300021F0030111430160E8E7FFF797FBA0EBDF
:103540000A0064283AD80E480068C005F5D5B5BB16
:10355000094818300068B4F8B01000F4407001F465
:103560004071884219D00448183001680AE0000010
:103570002C440258504402585844025810440258EF
:1035800000480258026821F4407142F4803202601F
:10359000026822F4803202600160D4F8B000B0F515
:1035A000807F22D1FFF762FB824609E0FFF75EFBD6
:1035B000A0EB0A0141F28830814201D9032504E0E1
:1035C000FE4800688007F1D57DB12E432078DFF8F2
:1035D000F0A3C0073CD0A06F182837D025DC78B303
:1035E000082828D0102824D12BE0D4F8B000C0F34C
:1035F000012103290ED0DBF8001021F47C51CBF817
:103600000010EE480168B4F8B020C2F30B02114379
:103610000160DBE7DBF80020EA4B22F47C5203EA8E
:1036200010100243CBF80020EBE720280ED028280A
:103630000CD001250BE00121201D02F09DF804E0D3
:1036400004E00098012102F00FF905465DB12E4318
:10365000207880071ED5606F062819D2DFE800F0B9
:10366000160C11161616DAF80010A26F21F03801A8
:103670001143CAF80010EBE70121201D02F07CF88D
:1036800003E00098012102F0EFF8054675B100E073
:1036900001252E43207840071FD5D4F89000062836
:1036A00019D2DFE800F0160C11161616DAF8001021
:1036B000626F21F007011143CAF80010EAE7012107
:1036C000201D02F059F803E00098012102F0CCF827
:1036D00005469DB100E001252E43207880062BD5BC
:1036E000D4F88C00B0F1405F24D011DC10B3B0F1FD
:1036F000805F15D0B0F1005F10D116E0D9F800104E
:10370000D4F8902021F007011143C9F80010E4E734
:10371000B0F1804F0ED0B0F1A04F0BD001250AE0E0
:103720000021201D02F028F803E00098022102F099
:103730009BF805468DB12E43207840062BD5D4F852
:103740009800B0F5406F24D011DC10B3B0F5806F55
:1037500015D0B0F5006F10D116E0DAF80010D4F8EB
:103760008C2021F0E0411143CAF80010E4E7B0F5E5
:10377000805F0ED0B0F5A05F0BD001250AE00021DC
:10378000201D01F0F9FF03E00098022102F06CF81F
:1037900005468DB12E43207800062BD5D4F89C0029
:1037A000B0F5C04F24D011DC10B3B0F5005F15D0D8
:1037B000B0F5804F10D116E0D9F80010D4F8982059
:1037C00021F4E0511143C9F80010E4E7B0F5004FCF
:1037D0000ED0B0F5204F0BD001250AE00021201DAE
:1037E00001F0CAFF03E00098022102F03DF805460F
:1037F00065B32E43207800070BD5D4F88000B0F5D0
:10380000805F2DD0DAF8002022F440520243CAF83B
:1038100000202078C0060BD5D4F89400B0F5807F46
:1038200024D0D9F8002022F440720243C9F80020C5
:10383000206800032CD5D4F8A000E8B1B0F5803F93
:103840001FD0B0F5003F21D0012520E0D9F80010AD
:10385000D4F89C2021F460411143C9F80010C9E755
:103860000098022102F000F80643D2E700980221F6
:1038700001F0FAFF0643DBE70021201D01F07CFF89
:1038800003E00098022101F0EFFF054685B12E43C9
:103890002068400322D5D4F88400B0F5801F11D0F1
:1038A000B0F5001F13D0B0F5401F15D0012514E06E
:1038B000D9F80010D4F8A02021F440311143C9F800
:1038C0000010E5E7386840F40030386004E0009804
:1038D000012101F0C9FF054655B12E432068C00300
:1038E0001CD5E06C70B1B0F5803F10D0012514E01C
:1038F000DAF80010D4F8842021F440111143CAF8FA
:103900000010EBE7386840F40030386004E0022132
:10391000201D01F031FF0546C5B12E43206880000F
:1039200004D50098022101F09FFF06432068800320
:103930001BD5E06FB8B1B0F5807F10D0B0F5007F37
:1039400011D0B0F5407F0ED001250DE01C4808389D
:103950000168E26C21F4803111430160DEE73868D0
:1039600040F40030386045B32E432068C00207D5CC
:10397000D8F80000226F20F000401043C8F8000083
:103980002068C00008D5DBF80010D4F8B42021F47A
:1039900080411143CBF800102068800207D5D8F889
:1039A0000010A26E21F080711143C8F80010206849
:1039B000400014D5DBF8001006E01EE07044025809
:1039C00054440258CFFFFF0021F40041CBF800100F
:1039D000DBF80010D4F8B8201143CBF800102068B1
:1039E000002806DA0A480168226D21F0405111438F
:1039F00001605EB10120BDE8F88FDAF80010E26FD7
:103A000021F440711143CAF80010AEE70020F2E73C
:103A10004C4402582DE9F047DFF8BC9104460E46AD
:103A2000D9F8000000F00700B0420CD2D9F800101D
:103A300021F007013143C9F80010D9F8000000F067
:103A40000700B0427ED12078DFF89081800707D54B
:103A5000D8F80010E26821F00F011143C8F80010F7
:103A60002078C00762D0D8F80010A26821F47061F5
:103A70001143C8F8001059496068183902281CD051
:103A800003281DD0096801281DD04907002960DAE4
:103A9000524F083F396821F0070101433960FFF7B1
:103AA000E5F80546606841F28831022813D0032802
:103AB0001ED001288A4627D034E009688903E5E74B
:103AC00009688901E2E7C905E0E7FFF7CFF8411B84
:103AD000514501D923E08A463868C0F3C200022864
:103AE000F3D123E0FFF7C2F8411B514501D916E09D
:103AF0008A463868C0F3C2000328F3D116E0FFF706
:103B0000B5F8411B51450AD83868C0F3C2000128F6
:103B1000F5D10BE0FFF7AAF8411B514502D903206C
:103B2000BDE8F087386810F0380FF3D1D9F80010ED
:103B3000484601F00701B1420DD9016821F00701A3
:103B4000314300E005E00160006800F00700B0428A
:103B500001D00120E4E72078400707D5D8F800100D
:103B6000226921F070011143C8F800102078010784
:103B70001B4805D50168626921F07001114301609D
:103B80002178C90605D50168A26921F4E0611143D5
:103B900001602078800607D51149091D0868E2698F
:103BA00020F070001043086000F080F8D8F8001092
:103BB0004FF4807292FAA2F201F47061B2FA82F2CA
:103BC000D140084A515CC840074908600F20FFF700
:103BD00069F80020A4E700000020005218440258B1
:103BE0001C4402589A5B0108881B00243F22026093
:103BF000144A126802F007024260124A083213683F
:103C000003F470638360136803F00F03C3601268EA
:103C100002F0700202610B4A0C32136803F0700369
:103C20004361126802F4E0628261064A103212684F
:103C300002F07002C2610448006800F007000860EA
:103C400070470000104402580020005210B5FFF7E2
:103C50006FFA08490968012292FAA2F201F00F01F5
:103C6000B2FA82F2D140044A515CC840034908606C
:103C700010BD0000184402589A5B01088C1B0024F8
:103C800010B5FFF7E3FF07490968102292FAA2F284
:103C900001F07001B2FA82F2D140034A515CC8408F
:103CA00010BD00001C4402589A5B01083548F0B56D
:103CB0000068364D10F03801334809D00411082946
:103CC00004D0334E10290BD018290BD02046F0BD5C
:103CD00029688906FBD52968C1F3C101C840F0BD38
:103CE0003046F0BD274918310A68096812F003020E
:103CF000284BC1F305111B68274F03F001033F68F0
:103D0000DFED260AB7EE001AC7F3CC0717FB03F363
:103D100000EE103A224BB8EE400A06D0012A01D03C
:103D2000022A2BD0B4FBF1F008E02A68920603D5F2
:103D30002A68C2F3C102D040B0FBF1F001EE900A54
:103D40001868B8EE612AC0F3080001EE900A1868FE
:103D5000F8EE611A40EE201A31EE810A22EE000AD6
:103D6000C0F34620401C00EE900AF8EE600A80EE98
:103D7000201ABCEEC10A10EE100AF0BDB6FBF1F03D
:103D8000DCE70000104402580090D00300440258C1
:103D900040787D012C440258344402580000003918
:103DA000304402582DE9F05F04460078DFF8FC83C8
:103DB00041F28839DFF8F8A3FE4DC0074ED0D8F89D
:103DC00000104046C1F3C20102291AD00068C0F3B6
:103DD000C200032805D1DAF8000000F00300022831
:103DE0000FD06068B0F5803F12D010B1B0F5A02FB1
:103DF00019D0286820F480302860286820F48020BA
:103E000009E02868800329D56068002874D025E07F
:103E1000286840F480302860606890B1FEF726FF83
:103E200006464F4609E0286840F480202860EFE706
:103E3000FEF71CFF801BB8427DD828688003F7D5A9
:103E40000CE0FEF713FF06464F4604E0FEF70EFFB8
:103E5000801BB842F0D828688003F7D42078D64F6A
:103E600080075AD5D8F8001040464FF47C3B11F03B
:103E7000380F13D00068C0F3C200032803D1DAF86A
:103E8000000080070AD0E068A8B3296821F0190172
:103E900001432960FEF7EAFE06461DE02868400758
:103EA00002D5E0680028B1D02868E16820F0190048
:103EB00008432860FEF7DAFE064604E0FEF7D6FE69
:103EC000801B0228B8D828684007F7D507E0FEF71E
:103ED000CDFE801B0228AFD828684007F7D5386888
:103EE0009BFAABF220F47C312069B2FA82F2904066
:103EF0000143396011E000E0AEE0286820F00100E5
:103F00002860FEF7B3FE064604E0FEF7AFFE801B16
:103F1000022891D828684007F7D42078C00655D5E4
:103F2000D8F8001040464FF0F84BC1F3C201012908
:103F300017D0006800E0EDE0C0F3C200032805D10F
:103F4000DAF8000000F0030001280AD0E069002838
:103F500028682CD040F080002860FEF787FE0646D7
:103F600016E02868C00502D5E069802874D1386859
:103F70009BFAABF220F0F841206AB2FA82F290404C
:103F80000143396022E0FEF771FE801B022899D8B8
:103F90002868C005F7D538689BFAABF2216AB2FAF7
:103FA00082F220F0F8409140084338600EE020F0A3
:103FB00080002860FEF75AFE064604E0FEF756FE33
:103FC000801B022887D82868C005F7D4207800070E
:103FD00024D5774F60694C37002838680FD040F0FF
:103FE00001003860FEF742FE064604E0FEF73EFEA2
:103FF000801B02288DD838688007F7D50EE020F0A6
:1040000001003860FEF732FE064604E0FEF72EFEA1
:10401000801B02287ED838688007F7D42078800675
:1040200023D5A069002828680FD040F4805028606C
:10403000FEF71CFE064604E0FEF718FE801B022871
:1040400068D828688004F7D50FE020F480502860F5
:10405000FEF70CFE064605E0D6E0FEF707FE801BE5
:10406000022857D828688004F7D42078400744D520
:10407000524F386840F480703860FEF7F7FD06460E
:1040800004E0FEF7F3FD801B642843D83868C005C0
:10409000F7D5474FA068483701280AD008B105284E
:1040A00011D0386820F001003860386820F0040032
:1040B00002E0386840F001003860A06888B1FEF77F
:1040C000D5FD064609E0386840F004003860F0E7A6
:1040D000FEF7CCFD811B49451CD838688007F7D511
:1040E0000BE0FEF7C3FD064604E0FEF7BFFD811BB3
:1040F00049450FD838688007F7D4606AF0B3D8F81C
:104100000010C1F3C20103297ED00228286820F0E4
:10411000807000E079E0286003D0FEF7A7FD044638
:1041200087E0FEF7A3FD064604E0FEF79FFD801B37
:1041300002287BD828688001F7D4DAF8001040F212
:10414000F3329143E26A41EA0211A26A1143CAF8CA
:10415000001094F834004FF4FE02218E4002491EF4
:10416000A0F5007080B2C1F308010843218F491EF9
:1041700002EA0141084394F83C1000E05CE0491E6B
:10418000120202EA016108430949083108600B1D67
:1041900019684FF6F872A06C914392FAA2F2B2FA43
:1041A00082F2904001431960014809E0104402582E
:1041B0002844025800440258044402580048025857
:1041C000001D0168226C21F00C011143016001689F
:1041D000626C21F0020111430160016841F48031F9
:1041E0000160016841F400310160016841F48021FF
:1041F0000160016841F001010160286840F08070B1
:104200002860FEF733FD01E018E00FE0044604E00B
:10421000FEF72CFD001B022808D828688001F7D57E
:104220000AE0FEF723FD001B022802D90320BDE8A7
:10423000F09F28688001F4D40020F8E70120F6E719
:104240000068503050F8210070470068503040F846
:104250002120704710B500680B4641680D480140A9
:10426000080CD870C1F304245C7001F03F049C700A
:10427000C1F34231197052B901F06EFBD870587811
:1042800001F06AFB5870987801F066FB9870002086
:1042900010BD00003FFFFF0010B50B460168896AA2
:1042A000596001680969C1F30E01996000680168ED
:1042B0000E480140C1F305401870C1F306245C703C
:1042C00001F07F049C70402404EA1141D97052B976
:1042D00001F042FB1870587801F03EFB5870987856
:1042E00001F03AFB9870002010BD00007F7F7F0036
:1042F00070B5040003D094F8210010B107E001204C
:1043000070BD002084F82000204600F045F802200F
:1043100084F821002168CA2048625320216848623D
:10432000204601F0C5FBFF210028206804D041622F
:10433000042084F82100E2E78268164B1A4082606C
:10434000206882686368A5691A4323692B431A436E
:1043500082602268E068106120680269238942EA6D
:10436000034202612068C26822F08002C2602068B5
:10437000C26C22F00302C264E269606902432068F1
:10438000C36C1A43C26420684162012084F8210092
:10439000002070BDBFFF8FFF704700002DE9F04780
:1043A000044690F820000B46012826D04FF0010962
:1043B00084F82090022084F82100587802B301F09C
:1043C000CBFA987801F0C8FAD978987840EA014594
:1043D00058781978000240EA413005432168CA2024
:1043E0004862532021684862204601F061FB0026A4
:1043F0004FF00408FF2758BB19E00220BDE8F08702
:10440000C10603D500F0EF000A305870D87801F0EB
:10441000ACFA0204587801F0A8FA42EA002298782F
:1044200001F0A3FA0243187842EA4035D6E7104873
:104430000540206845602068C16821F08001C160A6
:104440002068806880060BD4204600F08FF838B1D1
:104450002068476284F82180012084F82060CDE73D
:104460002068476284F82190002084F82060C5E726
:104470003FFFFF002DE9F047044690F820000D466D
:10448000012812D04FF0010A84F820A0022084F8FD
:1044900021002068002680684FEA406042B1002871
:1044A0001ADA287801F058FA17E00220BDE8F08700
:1044B000002800DBEE70287801F057FA02046878D3
:1044C00001F053FA42EA0022A87801F04EFA0243C2
:1044D000E87842EA00470AE0EE702978A87840EAD6
:1044E00001476878E978000240EA01400743216803
:1044F000CA204862532021684862204601F0D8FA59
:104500004FF0FF084FF00409E0B917480740206852
:1045100007602068816821F480218160D5E903105B
:10452000014320688268114381602068C16821F0DE
:104530008001C1602068806880060CD4204600F0AD
:1045400015F840B12168C1F8248084F82190012039
:1045500084F82060AAE72168C1F8248084F821A0AB
:10456000002084F82060A1E77F7F7F0070B50546BA
:104570000068C16821F0A001C160FEF777FB4FF42D
:104580007A76044606E0FEF771FB001BB04201D9C3
:10459000032070BD2868C0688006F4D5002070BD77
:1045A00070B504000D4603D094F82C0010B107E05C
:1045B000012070BD002084F82D00204600F018F87E
:1045C000022084F82C002068211DFDF7E3F8D4E9CF
:1045D00000022946FDF71EF90448016841F0004138
:1045E0000160012084F82C00002070BD00400052C2
:1045F000704710B5044690F82C00022809D002201C
:1046000084F82C002068FDF7EDF8012084F82C00D8
:10461000002010BD70B5044690F82C000D4602280D
:104620000CD0022084F82C002068FDF7E1F82868FF
:10463000022804D0012084F82C00002070BD052041
:10464000F9E700000149022008607047641B00245C
:104650002DE9F047044600680769D0F81490D0F8B7
:10466000088007EA090594F881600020690605D4EE
:10467000E90703D0216F204688470120A90606D408
:10468000A90704D5616F2046BDE8F0470847002818
:1046900058D128074FF0010A69D52068816941F097
:1046A000080181612068816941F010018161206801
:1046B000816941F4006181612068016921F008018C
:1046C000016118F4404F09D0042E04D0A06FC069D6
:1046D00020B1032E3FD0E06FC069A8BB206880687E
:1046E00010F4404F1FD022E0E0680F2806D9206860
:1046F000006B616E0860606E001D0EE00728206888
:1047000005D9008E616E0880606E801C05E090F80F
:104710003000616E0870606E401C6066B4F86A001C
:10472000401EA4F86A00B4F86A000028DCD12046D4
:1047300001F0C2FB84F881A0D4F8840020B12046A7
:10474000FFF780FFBDE8F087FFE7052E07D0042EB6
:1047500009D0032EF6D1204600F000FBF2E72046F8
:1047600000F0FEFAEEE7204600F006FAEAE7380726
:1047700008D55FEA095005D52068816941F40061D8
:104780008161DFE715F4587FDCD068060AD5D4F8DC
:10479000840040F00400C4F884002068816941F07E
:1047A00040018161A8050AD5D4F8840040F00100D9
:1047B000C4F884002068816941F400718161E805D2
:1047C0000AD5D4F8840040F00800C4F884002068BA
:1047D000816941F480718161A8060AD5D4F884000A
:1047E00040F08000C4F884002068816941F0200115
:1047F0008161D4F884000028A4D02068016821F0E9
:10480000010101602068016940F26B32914301614E
:1048100018F4404F14D02068816821F44041816031
:10482000094DE06F18B10565E06FFDF733F8A06F33
:10483000002887D00565A06FBDE8F047FDF72AB8CE
:1048400084F881A07BE70000975F00082DE9F05F06
:1048500004004FF000053DD0DFF8C4812068714EA0
:10486000714F4045A36A06D0B04204D0B84202D08E
:10487000E1680F292ED8E26B4FF0010B0BEB521CB5
:10488000E26802F10801C908404501FB0CF105D0BE
:10489000B04203D0B84201D008291BD8404503D00C
:1048A000B04201D0B84201D1102913D84FF4800989
:1048B0004B4512D1404507D0B04205D0B84203D095
:1048C000206BB0F5702F05D8256B05B91504B2EB38
:1048D000154F02D90120BDE8F09F94F881004FF0F8
:1048E000000A20B9204684F880A000F09FF802203A
:1048F00084F881002068016821F001010160A0694D
:10490000B0F1806F09D16068484506D1A06B20B92D
:104910002068016841F480510160A16AE0690843A0
:10492000E16B29430843E168084321688860616AB4
:10493000606BA2690843A16B1143084321690843D6
:1049400061690843216A084361680843E16C0843D0
:10495000A1680843A16C0843A16D08432168C860A1
:10496000A06A484529D1206C01282068016827D019
:1049700021F400410160606C01282068016822D0A8
:1049800021F4804101602068404506D0B04204D047
:10499000B84202D0B5F5702F18D0404503D0B042D0
:1049A00001D0B84202D1B5F5F81F0FD0016821F44B
:1049B000005101602168E06A0864606850B119E044
:1049C00041F40041D6E741F48041DBE7016841F45E
:1049D0000051EEE7A06A30B92068816821F4C05127
:1049E00041F4006181602068816821F4C06141F474
:1049F000806181602068016D21F0010101656068BE
:104A0000400206D52068C168626D21F00041114363
:104A1000C160C4F884A084F881B000205BE7000086
:104A20000030014000380040003C00402DE9F047D4
:104A30004C490646006886B088427DD14A480168E4
:104A400041F002010160016801F002010591016875
:104A500041F002010160016801F002010591016865
:104A600041F002010160006800F0020005903E483C
:104A70001030016841F480510160006800F48050FA
:104A8000059039480838016841F00201016000686A
:104A90000524364D694600F002000590082000907C
:104AA000022001900290CDE903042846FDF7E0FFC3
:104AB00010206946049400902846FDF7D9FF2D4C3C
:104AC00000252B48032704F124014FF4000820603F
:104AD00026204FF40019606081E8A0031C394020B3
:104AE0004FF4806A81E8210465612046A561E56193
:104AF0002562FDF77BF8B467A66378341C4804F19F
:104B000024011838206081E8A0032520C4E90105AC
:104B1000C4E9035A4FF400306561A561C4E9075048
:104B20002046FDF763F8F46701220D21A6633B20C0
:104B3000FEF7C4FA3B2000E011E0FEF7B1FA0022D4
:104B40000E213A20FEF7BAFA3A20FEF7A9FA00221F
:104B50000C212320FEF7B2FA2320FEF7A1FA06B0BB
:104B6000BDE8F08700300140E044025800040258DC
:104B700058040240A8BE0024704770472DE9F04158
:104B8000044690F880001D4601280FD0012084F8CB
:104B9000800094F8810000264FF4800701280ED091
:104BA0006068B84209D1A06838B902E00220BDE8C7
:104BB000F08194F88100042801D0022030E071B324
:104BC0006AB365B394F88100042802D0052084F804
:104BD0008100C4F88460E165A4F86050A4F86250D4
:104BE0006266A4F86850A4F86A5026676667206871
:104BF000816821F440418160E0684FF480430F28D0
:104C000003D9E16F8969994209D107284FF4005C03
:104C100009D9E16F8A6962452AD09A4228D00120D9
:104C200084F88060C3E7A06F8169614505D1B4F85D
:104C30006210491C4908A4F862108069984205D1A5
:104C4000B4F86200C01C8008A4F86200E06F8169BB
:104C5000614505D1B4F86A10491C4908A4F86A10E6
:104C60008069984219D1B4F86A00C01C800812E02B
:104C70000F2812D8A06F8069984205D1B4F862005D
:104C8000401C4008A4F862008869984205D1B4F835
:104C90006A00401C4008A4F86A0094F881000428C7
:104CA0004DD0E16F284808642848E16FC863E16F80
:104CB0002748C864E06F0665B4F86A302168626E00
:104CC000E06F3031FDF75CF82068816841F4804185
:104CD0008160A06F0664A06FC663A06FC664A06FFA
:104CE0000665B4F862302268E16DA06F2032FDF7EE
:104CF00047F8A06FC069B0F5807F206841686FF306
:104D00000F0100D0294341602068816841F40041CF
:104D100081602068016941F458710161206801686F
:104D200041F0010101606068B84204D12068016867
:104D300041F400710160304684F8806037E7E16F2C
:104D4000044808640448B0E7E75F000819600008F9
:104D5000B15F0008DD5F0008F15F000870470000E8
:104D60002DE9F84331480024042120220094BFF3A8
:104D70004F8F2F4B1860891A00291044FADCBFF3BB
:104D80004F8FBFF36F8F2D4B00202D4D9FED292BA3
:104D9000E96800EE901A6968B8EE601BB0EE420B4D
:104DA00021EE001BFDEEC10B10EE902A03EB410635
:104DB000491C6960401C08283280E9D3E868401C1F
:104DC000E860E868B0F5484F00D3EC6068684007D9
:104DD00002D06C60BDE8F88368684FF4C869194E6A
:104DE0004FF08057DFF86080484504D1AC60022066
:104DF00002F06EFC0AE0686840F67841884211D9FA
:104E0000022002F065FCC5F808906C6069463068C5
:104E100010F0A5F9009828B1C8F80070BFF34F8FC3
:104E2000BFF36F8F01202860D4E70000C0CF0024BB
:104E30005CEF00E09A9999999999B93F0000002494
:104E4000641B00241819002404ED00E070470000E2
:104E500003490A6822F4600202430A6070470000B6
:104E6000040400587047704710B5040003D094F84C
:104E70003D0010B107E0012010BD002084F83C0087
:104E8000204600F00CF8022084F83D002068211D27
:104E900001F0F4F9012084F83D00002010BD7047B6
:104EA0000168CA6842F00102CA600068018841F0E6
:104EB0000101018000207047704770B5044600680A
:104EC00001694FF00005C943890715D4C168C9437A
:104ED000890711D4E91E01610120207720688069CB
:104EE0008007204602D0FFF7E7FF04E000F0A5F8B6
:104EF000204600F070F9257720680169C943490709
:104F000017D4C168C943490713D46FF00401016184
:104F1000022020772068806910F4407F204602D06C
:104F2000FFF7CAFF04E000F088F8204600F053F9CC
:104F3000257720680169C943090716D4C168C943A8
:104F4000090712D46FF0080101610420207720685E
:104F5000C0698007204602D0FFF7AEFF04E000F0F2
:104F60006CF8204600F037F9257720680169C943BD
:104F7000C90617D4C168C943C90613D46FF010011C
:104F80000161082020772068C06910F4407F204626
:104F900002D0FFF791FF04E000F04FF8204600F048
:104FA0001AF9257720680169C943C90708D1C16882
:104FB000C943C90704D1891E0161204600F038F9B0
:104FC000206801696FF08005C943090607D4C168EC
:104FD000C943090603D405612046FFF743FF206853
:104FE0000169C943C90507D4C168C943090603D487
:104FF00005612046FFF736FF20680169C94349066D
:1050000009D4C168C943490605D46FF04001016164
:10501000204600F00FF920680169C94389060BD4C6
:10502000C168C943890607D46FF020010161204699
:10503000BDE87040FFF717BF70BD704770B50446FC
:1050400090F83C000D4601280ED0012684F83C6003
:10505000022084F83D000C2A45D007DC5AB1042A0E
:105060001BD0082A78D12CE0022070BD102A4ED027
:10507000142A71D15DE0206801F06CF92068816923
:1050800041F0080181612068816921F0040181619A
:10509000206881692A69114311E0206801F0A8F9AC
:1050A0002068816941F4006181612068816921F48F
:1050B00080618161206881692A6941EA02218161F8
:1050C0004AE0206801F0DCF92068C16941F008017C
:1050D000C1612068C16921F00401C1612068C16912
:1050E0002A69114311E0206801F00EFA2068C169B5
:1050F00041F40061C1612068C16921F48061C1612E
:105100002068C1692A6941EA0221C16124E020685E
:1051100001F030FA2068416D41F0080141652068D6
:10512000416D21F0040141652068416D2A691143F8
:1051300011E0206801F054FA2068416D41F40061EB
:1051400041652068416D21F4806141652068416DB1
:105150002A6941EA0221416584F83D60002084F813
:105160003C0070BD10B50446022084F83D00206864
:10517000016A41F21112114207D1016A92101142E3
:1051800003D1018821F001010180204600F021F8BF
:10519000002084F83D0084F83C0010BD10B50400E8
:1051A00003D094F83D0010B107E0012010BD0020AD
:1051B00084F83C00204600F00DF8022084F83D0001
:1051C0002068211D01F05AF8012084F83D000020DC
:1051D00010BD70477047704710B501220446006843
:1051E00001F0ACF80D48216881420BD00C48814297
:1051F00008D00C48814205D00B48814202D00B48B0
:10520000814203D1486C40F4004048642068018822
:1052100041F001010180002010BD000000000140AC
:1052200000040140004001400044014000480140AA
:10523000FDF722BD70470000294930B50A68002AF1
:1052400007DA0A6842F000420A608169891C8161BC
:1052500030BD234A083A1268224C2262204A121FAB
:10526000127884F824201E4AD21E1278A2621C4AA8
:105270000C321268E2621A4A921E1288228609686B
:1052800061631749091D0968A1631549103109684F
:10529000E16300211F4A14A56B5C1385D3695B068B
:1052A000FCD5491CC9B22929F6D31B4900230B6040
:1052B0000A68002AFCD00268226042686260826844
:1052C000A260C268E2600269226142696261826929
:1052D000A261C069E0610B6008680028FCD030BDA5
:1052E0002CED00E0F4CF00240D0A456E74657220A9
:1052F000486172644661756C745F48616E646C6588
:10530000722C2053797374656D2048616C742E0D76
:105310000A00000000100140901B002438B504462C
:105320006A460020009001216369206898470028A0
:105330006FF0040525DB6369012120686A46984700
:1053400000281EDB0098400701D4012038BD6369A6
:10535000002120686A469847002812DB0098C104A3
:1053600008D44FF4045181431CD081041CD4C005DF
:105370001CD415E063691F2120686A4698470028FD
:1053800001DA284638BD0098C10401D4062038BD92
:10539000C0F38200062805D0022805D0052805D0D4
:1053A000052038BD022038BD032038BD042038BD9B
:1053B0002DE9F84304460020009006460546606843
:1053C000B8BBA06800B18047202020606FF00407C0
:1053D000636912216A4630469847002801DA3D4643
:1053E00007E0009800F01F00B04202D100252660BF
:1053F00002E0761C1F2EEBD920681F2802D96FF01F
:1054000002053AE01DBB236900214FF40042984792
:10541000002823DB6369002120686A46984700283A
:1054200014DBA06980474FF4FA7906466FF0010853
:105430000FE016E0A0698047801B484508D86369E3
:10544000002120686A469847002802DA3D4614E0A9
:10545000454600980004EDD41DB10EE06FF0030541
:105460000BE0A06980474FF4FA670646A0698047C1
:10547000801BB842FAD9012060602846BDE8F88355
:1054800088B1CA687AB18A686AB10A695AB10A6889
:1054900082604A68C260CA6842618A6802610969BA
:1054A0008161002070474FF0FF3070470148FDF7E1
:1054B00039BC0000F45E002470B5D0E9031211433A
:1054C0000268D160D0E905121143D0E907231A43DD
:1054D0001143426A4FF0FE731143C26A93FAA3F379
:1054E0001143026BB3FA83F31143826A521E9A404E
:1054F000114382681143026811614FF08043416893
:10550000994204D101680A6942F040420A61016887
:1055100000244C61416B002906DA01684A6942F4B3
:1055200080224A61818E4942026889B21162816B90
:10553000154D002911DA01684A6942F400224A61D6
:10554000018F4A4201680E6A95FAA5F592B2B5FA42
:1055500085F5AA4016430E6209E00268166A95FABC
:10556000A5F589B2B5FA85F5A9400E4316624168E2
:10557000994203D00268C9B2916201E001688C626D
:105580000068446270BD00000000FFFF70B5046851
:10559000049D666963F31006666103685C696D1EAD
:1055A000194E96FAA6F6B6FA86F6B54064F31305D8
:1055B0005D6104681F2363600368DA6103689961B1
:1055C00001F07F414FF00053994213D091B101682F
:1055D0008C6A24F480348C6202F07F4199420ED0B0
:1055E00069B101688A6A22F400328A62C16D00687A
:1055F000416270BD01688C6A44F48034EBE7016855
:105600008A6A42F40032F0E70000F0FF014901200D
:10561000088070473C1B0024214808B5016841F010
:1056200001010160006880221E49022300F0010090
:1056300000901D480160090641608910C0E902120E
:105640000021C0E904130823C0E906319304C0E92E
:1056500008134FF4E043C3628262DB00C0E90C31FF
:105660008163FDF719FC18B1482110A0FCF78EF8F2
:105670001D4A00210C48FDF73EFC00227A2011460D
:10568000FDF71CFD7A20FDF70BFD184A0120009064
:105690000A23054802F5FA61FDF758FC08BD000031
:1056A000D444025840000052F45E0024443A5C594D
:1056B00045363238335C73746D333268375F6672E7
:1056C000656572746F732D6D61737465725C55736B
:1056D00065725C73656E645F6275666665725F7441
:1056E00061736B2E630000000D560008000020C09F
:1056F0007FB5FDF7A3FC1D4801250024019007207C
:105700008DF808008DF80F5003268DF80B60684661
:105710008DF80E408DF800508DF80D408DF80A4040
:105720008DF801408DF809408DF80C40FDF75CFCC8
:105730000F4801900D208DF8080068468DF80F4045
:105740008DF80B608DF80E508DF800508DF80D40DF
:105750008DF80A408DF801508DF809408DF80C4005
:10576000FDF742FC0420FDF777FC7FBD000004300C
:1057700000400430FEE770472DE9F047DFF8E48091
:1057800004460F464FF00009D8F80000C0438007D8
:1057900009D0344D283D286820F080602860FDF74E
:1057A00065FA064607E00120BDE8F087FDF75EFADE
:1057B000801B02284ED828680001F7D4D8F80010C2
:1057C000226821F47C3141EA0231C8F80010207AC5
:1057D0004FF4FE02A1884002491EA0F5007080B27D
:1057E000C1F308010843A189491E02EA01410843A7
:1057F000217C1202491E02EA016108431949103155
:1058000008601848001D0168626921F0C001114359
:1058100001600168A26921F02001114301606FB1AC
:105820000168012F0ED041F400110160286840F09A
:1058300080602860FDF71AFA04460DE0016841F423
:105840000021F2E741F48011EFE7FDF70FFA001BAA
:10585000022801D90320A7E728680001F5D54846AA
:10586000A2E70000284402582DE9F047DFF8E48061
:1058700004460F464FF00009D8F80000C0438007E7
:1058800009D0344D283D286820F080502860FDF76D
:10589000EDF9064607E00120BDE8F087FDF7E6F9DF
:1058A000801B02284ED828688000F7D4D8F8001052
:1058B000228821F07C7141EA0251C8F80010207A58
:1058C0004FF4FE02A1884002491EA0F5007080B28C
:1058D000C1F308010843A189491E02EA01410843B6
:1058E000217C1202491E02EA01610843194918315C
:1058F00008601848001D0168626921F44061114385
:1059000001600168A26921F40071114301606FB167
:105910000168012F0ED041F080710160286840F0CD
:1059200080502860FDF7A2F904460DE0016841F4BB
:105930008001F2E741F40001EFE7FDF797F9001B62
:10594000022801D90320A7E728688000F5D548463A
:10595000A2E7000028440258010900F00F0001EB03
:10596000810100EB4100C0B27047002102E00A381B
:10597000491CC0B20A28FAD2090740EA11607047F0
:1059800010B56424032906D3B0FBF4F304FB13031E
:10599000B0FBF4F009E00C31401E90FBF4F3C9B207
:1059A00004FB130390FBF4F0DBB21A24491C03EB55
:1059B000930311FB04F10A24B1FBF4F1C0B203EB31
:1059C0009003404203EB400008441044401E00B2E4
:1059D000072100280AD00CDAC0F1000090FBF1F298
:1059E00001FB1200C0F1070000B206E04FF0070013
:1059F00005E090FBF1F201FB12000028F6D0C0B2E6
:105A000010BD000010B5C2B0FDF78AFB0C202F902E
:105A1000002438940120349431902FA8FEF7C2F965
:105A200018B1652116A0FBF7B1FE4FF4800000907D
:105A300080132C906846FDF795FB18B16C2110A0DF
:105A4000FBF7A4FE1748016841F0180101600168E6
:105A500041F40041016015481349C0E900147F2159
:105A60008160FF21C0E903148461C461FEF740FC3A
:105A7000002803D08A2102A0FBF788FE42B010BDA7
:105A80002E2E5C2E2E5C557365725C6273705C7397
:105A900072635C6273705F6370755F7274632E63B0
:105AA000000000007044025800400058D0CF00248D
:105AB00070B505460068C168490613D44FF0FF3140
:105AC000C160FDF7D3F84FF47A76044606E0FDF79F
:105AD000CDF8001BB04201D9032070BD2868C06812
