:020000040800F2
:10000000C84D012471030008333E0008F5090008BB
:10001000313E0008210A0008414D000800000000A0
:10002000000000000000000000000000AD02000819
:100030001D0B0008000000000903000871420008C1
:100040008B0300088B0300088B0300088B03000858
:100050008B0300088B0300088B0300088B03000848
:100060008B0300088B0300088B0300088B03000838
:100070008B0300088B0300088B0300088B03000828
:100080008B0300088B0300088B0300088B03000818
:100090008B0300088B0300088B0300088B03000808
:1000A0008B0300088B0300088B0300088B030008F8
:1000B000D54300088B0300088B0300088B0300085E
:1000C0008B0300088B0300088B0300088B030008D8
:1000D0008B030008654B00088B030008714B000878
:1000E000611100088B030008000000008B0300086A
:1000F0008B0300088B0300088B0300088B030008A8
:100100008B0300088B0300088B0300088B03000897
:100110008B0300088B0300088B0300086944000868
:100120008B0300088B030008A10A00088B0300085A
:100130008B030008210B00088B0300088B030008C9
:1001400000000000000000000000000000000000AF
:100150008B0300088B0300088B0300088B03000847
:100160008B0300088B0300088B0300088B03000837
:100170008B0300088B0300088B03000800000000BD
:100180008B0300088B0300088B0300088B03000817
:100190008B0300088B0300088B0300088B03000807
:1001A0008B0300088B0300088B0300088B030008F7
:1001B0008B0300088B0300088B0300088B030008E7
:1001C0008B0300088B0300088B0300088B030008D7
:1001D0008B0300088B0300088B0300088B030008C7
:1001E0008B0300088B0300088B0300088B030008B7
:1001F0008B0300088B0300088B0300088B030008A7
:100200008B0300088B0300088B0300088B03000896
:100210008B0300088B0300088B0300088B03000886
:100220008B0300088B0300088B030008000000000C
:100230008B0300088B030008000000008B030008FC
:100240008B0300088B0300088B0300088B03000856
:100250008B0300088B0300088B0300088B03000846
:100260008B0300088B0300088B0300088B03000836
:100270008B0300088B0300088B03000800000000BC
:100280008B030008000000008B0300080000000042
:10029000000000008B030008DFF80CD000F0FEFA2D
:1002A00000480047998A0008C84D01242D4B196861
:1002B0000868B0E8F04F80F30988BFF36F8F4FF004
:1002C000000080F3118870470000000008480068B3
:1002D000006880F308884FF0000080F3148862B64D
:1002E00061B6BFF34F8FBFF36F8F00DF00BF00BF5A
:1002F00008ED00E0DFF80C00016841F470010160D6
:10030000704700BF88ED00E0EFF30980BFF36F8F07
:10031000144B1A681EF0100F08BF20ED108A20E958
:10032000F04F106009B44FF0400072B680F31188AE
:10033000BFF34F8FBFF36F8F62B612F027FA4FF003
:10034000000080F3118809BC19680868B0E8F04F14
:100350001EF0100F08BFB0EC108A80F30988BFF3BD
:100360006F8F704744000024EFF305807047000052
:100370000648804706480047FEE7FEE7FEE7FEE73F
:10038000FEE7FEE7FEE7FEE7FEE7FEE75143000873
:10039000990200082DE9F05F0546002092469B4631
:1003A00088460646814640241BE02846414647468B
:1003B000224600F0ABF853465A46C01A914110D37A
:1003C00011461846224600F092F82D1A67EB0108F4
:1003D0004F4622460120002100F089F817EB000962
:1003E0004E41201EA4F10104DFDC484631462A4676
:1003F0004346BDE8F09F00000048704714390108EB
:1004000010B5431A934209D28318881803E010F8F4
:10041000011D03F8011D521EF9D210BD40EA01036F
:100420009B0703D009E008C9121F08C0042AFAD2AA
:1004300003E011F8013B00F8013B521EF9D210BD58
:10044000D2B201E000F8012B491EFBD27047002216
:10045000F6E710B513460A4604461946FFF7F0FFC3
:10046000204610BD30B505462A460B4612F8010B52
:1004700013F8014B08B1A042F8D01CB1002802D0FB
:100480006D1CF1E7284630BD421C10F8011B002905
:10049000FBD1801A704730B504460020034600E0C7
:1004A0005B1C934203D2E05CCD5C401BF8D030BDB6
:1004B000034611F8012B00F8012B002AF9D1184648
:1004C000704730B50B46014600202022012409E088
:1004D00021FA02F59D4205D303FA02F5491B04FAFD
:1004E00002F52844151EA2F10102F1DC30BD202ADC
:1004F00004DB203A00FA02F1002070479140C2F17B
:10050000200320FA03F3194390407047202A04DBAC
:10051000203A21FA02F00021704721FA02F3D0407C
:10052000C2F1200291400843194670472DE9FE4F61
:10053000804681EA0300C00F0C46009021F0004184
:1005400023F00045B8EB0200A94105D24046214600
:1005500090461C460B46024623F00040104347D00D
:10056000270DC7F30A00C3F30A510290401A019005
:1005700040286BDAC3F3130040F4801B00989246C6
:1005800020B10023D2EB030A63EB0B0B0198594611
:10059000C0F140025046FFF7AAFF06460D465046FE
:1005A0005946019A00F08CF910EB080061410024D3
:1005B00087EA115284EAE7731A4340D0009A62B383
:1005C000019A012A4FEA075215DC001B61EB020178
:1005D0004FF0004202EA0752CDE90042001C41F50B
:1005E000801132462B4600F08CF903B0BDE8F08F45
:1005F00040462146F9E7001B61EB0201001C41F572
:10060000801300185B412018A2F5001747EB030187
:1006100040EAD570B6196D4111E06D084FEA360613
:1006200045EAC0754FEA0752001B61EB0201001C4E
:1006300041F5801149084FEA300000195141324616
:100640002B4603B0BDE8F04F00F04CB900980122F2
:1006500040000023D0EB020263EBE07300982146D8
:100660004FEAE074B8EB000061EB0401E9E783F0C6
:1006700000435BE781F0004158E72DE9FE4F81EA36
:10068000030404F0004421F0004100944FF0000BFB
:1006900023F0004350EA01045ED052EA03045BD029
:1006A000C3F30A54C1F30A552C44A4F2F334019461
:1006B000A0FB0254C1F3130141F48011C3F31303EF
:1006C00043F4801301FB024400FB034E840A970AA3
:1006D00044EA815447EA8357A4FB076802958D0AD0
:1006E00005FB07854FEA932C04FB0C542705029D5C
:1006F0004FEA065847EA1637B5EB08056EEB070CCC
:10070000870E920E47EA811742EA8312A7FB020185
:10071000B6EB0B0164EB00042B0D43EA0C335E18BF
:1007200044EB1C50DA465146E7FB0201C5F31304C3
:100730004FEA0B3343EA14534FEA0432019C43EA75
:100740000603A4F10C040294009CCDE900B400F06F
:10075000D8F803B0BDE8F08F00200146F9E72DE995
:10076000F04D81EA030404F0004B21F000451446EB
:100770004FF0000A23F0004150EA050220D054EA6D
:1007800001021DD0C5F30A570246C5F31303C1F396
:100790001300C1F30A5640F4801543F48013A7EB0D
:1007A0000608101BD64608F2FD3873EB050002D38D
:1007B00008F1010801E092185B41B8F1000F03DA7B
:1007C00000200146BDE8F08D00204FF48011064660
:1007D00084460EE0171B73EB050705D3121B63EB72
:1007E000050306434CEA010C49084FEA3000921811
:1007F0005B4150EA0107EDD152EA030012D082EAD0
:10080000040083EA0501084305D0101BAB4106D262
:100810000122002306E000224FF0004302E06FF0C7
:10082000010253101AEB06004CEB085110EB0A00C2
:1008300041EB0B01BDE8F04D00F054B8C1F30A5292
:10084000C1F3130140F2FF3341F480119A4202DAFE
:1008500000200146704740F233439A42A2F23342ED
:1008600002DC5242FFF752BEFFF741BE30B5041E14
:1008700071F1000404DB4FF00044404264EB0101DD
:10088000141E73F1000405DB1C464FF00043524276
:1008900063EB0403994208BF904230BD064C074DFC
:1008A00006E0E06840F0010394E807009847103440
:1008B000AC42F6D3FFF7F4FC043B0108543B0108BB
:1008C000202A06DBCB17203A41FA02F043EAE07314
:1008D00006E041FA02F3D040C2F120029140084301
:1008E0001946704710B5141E73F1000408DA401C55
:1008F00041F1000192185B411A4301D120F001003F
:1009000010BD2DE9F04D92469B4611B1B1FA81F22E
:1009100002E0B0FA80F220329046FFF7E8FD04468C
:100920000F4640EA0A0041EA0B0153465A46084383
:1009300013D0114653EA010019D0C8F140025046C5
:10094000FFF7E4FD05460E46504659464246FFF77E
:10095000CEFD084305D0012004E020463946BDE81D
:10096000F08D0020054346EAE0762C4337430A9891
:100970006305E40AA0EB08000022FD0A44EA47549C
:100980000A3002D500200146E9E701051019694146
:10099000DDE9084500196941BDE8F04DA2E770B5F1
:1009A0008C1810F8015B15F0070301D110F8013B1A
:1009B0002A1106D110F8012B03E010F8016B01F8A1
:1009C000016B5B1EF9D12B0705D40023521E0DD4F9
:1009D00001F8013BFAE710F8013BCB1A921C03E047
:1009E00013F8015B01F8015B521EF9D5A142D8D37F
:1009F000002070BD1EF0040F0CBFEFF30880EFF372
:100A0000098002F0E5BF0000034A10230349A2F564
:100A10008D5002F0BBBD0000402400243036010898
:100A2000FEE70000F0B5BFF34F8FBFF36F8F1A4999
:100A300000200860BFF34F8FBFF36F8F174C216802
:100A400041F400312160BFF34F8FBFF36F8F134923
:100A500070310860BFF34F8F081F006843F6FF75C1
:100A60000D4E1036C0F34E31C0F3C90305EA4112F2
:100A7000184642EA80773760401EFAD2491EF5D206
:100A8000BFF34F8F206840F480302060BFF34F8F5A
:100A9000BFF36F8FF0BD000050EF00E014ED00E0F9
:100AA00070470000F0B5D0E91964856D7460C46EBC
:100AB00014B1D0E91C466660154E04682644B6F5AC
:100AC000956F11D890F85C603F24B440AC60046826
:100AD000256825F4802512E09A600068C160F0BDA9
:100AE00099600068C260F0BD0A4D2C448C2CFAD885
:100AF000094C2568012690F85C70BE40354325609E
:100B0000046863608368402B0368E9D1E4E7000070
:100B1000F0FFFDBFF8ABFDA704540258704700007A
:100B2000014800F03CBD0000A437012470B5A2B01C
:100B300006460024694601258DF804506803069096
:100B40008DF80F504FF4C3608DF80E500D9020209B
:100B50008DF81D408DF80C4009948DF81F401294BB
:100B60008DF832508DF828408DF8605017904FF076
:100B700040508DF838400F9402948DF861408DF804
:100B80001C4014948DF862400B948DF81E50009018
:100B9000A8038DF811508DF840408DF83140059034
:100BA00002208DF812408DF85640169030468DF890
:100BB00020508DF854408DF830408DF810508DF84D
:100BC0000D408DF8554011948DF84C5000F0F6F919
:100BD0001B9569058DF871404FF406708DF86850CB
:100BE00019948DF880408DF870401F918DF87840F1
:100BF0001D9119A98DF881402190304600F08EF9A1
:100C000022B070BD0020704701F028BA024810B52C
:100C100000F09AFF002010BDA437012413460A46B5
:100C20000146044810B500F03CFF002801D04FF009
:100C3000FF3010BDA437012413460A46014604487C
:100C400010B501F0C1F8002801D04FF0FF3010BD01
:100C5000A43701242DE9F047846A00F11806924672
:100C60008B680027254656F82420D2F80CC0BCF12A
:100C7000000F63DB91F800805FEA487837D5D1F840
:100C800024806FF30F0C4CEA080C4CF4803CC2F843
:100C90000CC0D0F800C0DCF8608048F48018CCF8B4
:100CA000608091F800C05FEA0C7C20D5B1F82CC0C0
:100CB000A2F80AC0D2F80CC04CF4003CC2F80CC038
:100CC000D1F830802CF4402C4CEA080CC2F80CC04F
:100CD000D0F800C0DCF8648048F48018CCF8648058
:100CE0000068D0F850C04CF0806CC0F850C0087854
:100CF000C0060BD59068D1F818C06FF30D0040EA1C
:100D00000C009060D06840F08060D060087810F0EF
:100D1000140F14D0D068641C042C40F04040D06004
:100D200000D3241F012756F82420D068002806DAB3
:100D300056F82500C16821F00041C1608DE01868B7
:100D40007F1C10604FF000099068D3F804C06FF367
:100D50000D0040EA0C009060D3F80880DFF8B8C1BD
:100D6000B8F1000F0BD04346D8F80080C2F80480D9
:100D700000EA0C00B3F8048040EA084003E000EA0F
:100D80000C00C2F8049090600878C006D0680FD5B7
:100D9000B1F8208020F4F00040EAC840D060D1F8DB
:100DA0001C806FF3110040EA080040F480201CE032
:100DB000D1F804806FF30E0040EA0800D06091F88B
:100DC00000805FEAC87806D0D1F8148020F4403063
:100DD00040EA0800D0600878800607D5D068D1F8CE
:100DE000108020F0406040EA0800D060087840079A
:100DF00007D59068D1F8288020F4404040EA0800E8
:100E00009060D06820F0804040F02040D06091F8A1
:100E100000805FEA887869D5D1F80C8020F0607096
:100E200040EA080061E0641C042C00D3241F56F83B
:100E30002420D068002813DA56F8251000200AE094
:100E4000CA686D1C042D22F00042CA6000D32D1F19
:100E5000401C56F82510B842F2D30220BDE8F087B6
:100E600018687F1C10609068D3F804806FF30D0041
:100E700040EA08009060D3F80880B8F1000F0BD06A
:100E80004346D8F80080C2F8048000EA0C00B3F8AA
:100E9000048040EA084003E000EA0C00C2F8049035
:100EA00090600878C006D06808D5D1F81C806FF330
:100EB000110040EA080040F4802011E0D1F80480DD
:100EC0006FF30E0040EA0800D06091F800805FEAFE
:100ED000C87815D0D1F8148020F4403040EA0800DA
:100EE000D06020F0804040F00040D0609B68002B34
:100EF00099D19068BAF1000F04D040F0004003E0AF
:100F0000D068EEE720F000409060D06840F080505C
:100F1000D06000203461A1E7FFFF00C030B5026857
:100F200002F58052136847F60204A3430C6823437A
:100F300013600A790B7B120342EAC3338A681343B6
:100F4000026802F5805254684DF20105AC431C431F
:100F500054604B7B0A6A42EA0343026802F58052FE
:100F6000D2F80041124D2C401C43C2F800410A7DCA
:100F70004B7F120142EA03330A691343026802F508
:100F80008052D2F804410B4D2C401C43C2F804415E
:100F900000688A69097F00F5805042EAC171D0F883
:100FA0000821054B1A400A43C0F8082130BD000053
:100FB00000C0FEFFEFEFC0FFFFFFC07F30B50B6842
:100FC0008A680C7B1A430B79DB0643EAC4531A4345
:100FD0004B7B42EA83528B7B42EA4352CB7B42EA11
:100FE00003530A7C002A7CD0002243EAC2434A7C95
:100FF000002A78D0002243EA42428B7C42EA034234
:101000004B691A438B691A430B7F42EA03324B7FC9
:1010100042EAC3238A7F002A66D0002243EA822262
:10102000CB7F42EA432391F82020002A7ED0002281
:1010300043EA02224B6A1A4391F8283042EA03132A
:10104000CA6A134302681468434D2C401C43146061
:1010500091F83C2091F83830520642EA036291F848
:10106000303042EA834291F8313042EA434391F80A
:101070003220BAB3002243EA02434A6B13430268A8
:101080005468364D2C401C43546091F840304A6CF3
:1010900042EA03230268D46840F20F15AC431C43B4
:1010A000D46091F854300A6D42EA430391F84C2021
:1010B000EAB30022B1F84840D20142EA04421343A5
:1010C0000268146F4FF60D752C401C43146791F89D
:1010D000553091F8562042EA43030268D2F8904016
:1010E00003E02BE032E02BE02CE024F003041C436F
:1010F000C2F890400268D2F8003D8C6D23F0720374
:101100002343C2F8003D91F86020CB6D12B300225A
:10111000006843EA821291F8613091F862101B0175
:1011200043EAC1010A43D0F8301D01E00CE00FE0B2
:1011300021F07B011143C0F8301D30BD012254E77E
:10114000012258E7012269E7012271E7012292E7B3
:101150000122AFE70122DBE7838004000080F8C0B2
:101160004FF4005000F070BE002900D0FEE7704739
:10117000406D70472DE9F04104004FF0000514D098
:1011800094F83400012812D0012084F8340094F837
:1011900035600020012E0CD084F834004FF400603C
:1011A000606501252846BDE8F0810120FBE70220AB
:1011B000F9E7022684F8356060654FF4956720688A
:1011C0001F4ED0F800C02CF0010CC0F800C0204623
:1011D000FFF768FC20688119B942016810D821F036
:1011E0001E0141F0160101602068416941F0800153
:1011F0004161206C80B12068016841F008010AE07B
:1012000021F00E0141F00A010160206C20B120683C
:10121000016841F004010160206E0168C90303D533
:10122000016841F480710160E06E18B1016841F419
:10123000807101602068016841F001010160B1E73F
:10124000F0FFFDBF70B5026C00F12C03456C53F844
:10125000221025B1DC6904B16D1C002423E00120BB
:1012600070BD0E690E604FF08076CE604E692EB173
:101270004E698E60CE6846F00076CE60CE6846F04D
:101280000046CE601E6A1EB1CE6846F08046CE6033
:101290009E69761EA64205D9521C042A00D3121F4D
:1012A00053F82210641CAC42DBD3006800F5805078
:1012B000C0F828110020986170BD704710B500EB90
:1012C0008104E46A0AB1042903D301214165084677
:1012D00010BD22602261E06840F08070E0604BB198
:1012E000A36040F000706361E06040F00040E060A7
:1012F000002010BDE068F8E7704700297DD0026843
:10130000126802F00C02CA6202681268C2F300128C
:1013100081F828200268126802F060024A620268BE
:10132000126842F30022521C81F8202002681268E1
:10133000C2F34022CA770268126842F38022521C2C
:101340008A7702681268C2F3C0224A77026812687C
:10135000C2F300320A770268126802F400528A610E
:101360000268126802F480424A6102681268C2F39D
:1013700000428A740268126842F34042521C4A7466
:101380000268126842F3C042521C0A740268126872
:10139000C2F30052CA7302681268C2F340528A73E1
:1013A00002681268C2F380524A7302681268C2F37C
:1013B000C0520A730268126802F0E0628A60026832
:1013C0001268C2F3C0620A710268126802F0E04259
:1013D0000A6002685268C2F30D024A6302685268EA
:1013E00042F30042521C81F8322002685268C2F374
:1013F000404281F83120026800E062E05268C2F3A6
:10140000804281F8302002685268C2F3006281F89D
:10141000382002685268C2F34462CA630268D26824
:10142000C2F3002281F840200268D26802F00F0265
:101430004A640268126FC2F3400281F854200268C5
:10144000126F42F3C012521C81F84C200268126FD6
:1014500002F070020A650268126F120C8A64026858
:10146000D2F8902002F0010281F856200268D2F8EA
:101470009020C2F3400281F855200268D2F8002D76
:1014800002F072028A650268D2F8302D02F023025F
:10149000CA650268D2F8302DC2F3C00281F862201A
:1014A0000268D2F8302DC2F3001281F86120006882
:1014B000D0F8300D40F38010401C81F8600000200F
:1014C0007047012070472DE9F043066C00F12C08AD
:1014D0000746406C0C464FF0000958F8265018B9E2
:1014E000384600F005FAE8B3002017E0696939B31F
:1014F000C4B32969216079696160A46894B369699A
:10150000216079696160E968761C042EC1F30E09D7
:1015100000D3361FA468401C58F82650D8F818107D
:10152000491E8142E2D8ECB1E868C0F30E01A1EB9C
:1015300009007969814205D32969C4E900100EE0E8
:101540002969DDE7696969B12969216079696160A3
:10155000A16839B16A690A607A69801A4860002016
:10156000BDE8F083FFE70120FAE770B500F12C0435
:101570000D46D4E9056111B900F0BAF968B1A06966
:10158000761E3044042800D3001F54F82000C068A1
:10159000C0F30E002860002070BD012070BD70B542
:1015A0000446006800F58050D0F86011490612D555
:1015B000D0F8340140060ED5204600F099F90128F4
:1015C00002D1204600F09EFA206848F2400100F562
:1015D0008050C0F86011206800F58050D0F860118C
:1015E000C9070DD0D0F83401C00709D0204600F05B
:1015F000E8FB206848F2010100F58050C0F8601156
:10160000206800F58050D0F860114FF0E0054904E3
:101610002CD5D0F83411490428D5616D41F008016A
:101620006165D0F86011C90412D5D0F8602141F28B
:10163000021191430AD00021A165D0F8341121F4A0
:101640004041C0F8341184F851500CE00121F3E717
:10165000D0F860114FF4CD4333EA01020FD00021DE
:10166000A165C0F860312046FFF727FE2068D0F85A
:10167000B0100026C1F34131032902D00AE0012154
:10168000EEE7D0F8B800E06584F85150204600F04D
:1016900093F9E6652068D0F8B010C90608D5D0F8EF
:1016A000C00000F060002066204600F0F9F92666D0
:1016B0002068D0F8B010890608D5D0F8C00000F036
:1016C0000F0060662046FFF717FE66664FF0B040D9
:1016D000D0F8A810490206D54FF48001C0F8A81030
:1016E000204600F06FFB70BDF8B5040003D094F8FD
:1016F000510010B104E00120F8BD204600F05EF971
:10170000232084F851007048016841F00201016013
:10171000006800F002000090207A08B14FF4000049
:1017200002F026F8206800F58050016841F00101C0
:10173000016000F093FCE02605464FF4FA7706E0DE
:1017400000F08CFC401BB84201D9042049E020681D
:1017500000F580500068C007F2D12068D0F8000280
:1017600020F4706501F000FC5849594A0144914247
:1017700002D245F4007516E05649574A0144914299
:1017800002D245F440750EE05449554A0144914255
:1017900009D3544908445449884202D245F480751B
:1017A00001E045F480652068C0F8005201F0DCFBE0
:1017B0004E49B0FBF1F02168401EC1F8DC00204624
:1017C000FFF7B4F9206800F58050D0F8001121F43B
:1017D000E01141F40021C0F800116169880704D0CC
:1017E0000120606584F8516085E7206800F580502D
:1017F000D0F8082147F6FE739A4342EA4101C0F847
:10180000081100210A46E06801EB410300EBC30028
:1018100004EB8103491C0260042942608260C260BB
:101820009861F0D3A2620323206800F58050C0F8CD
:101830002C312068E16800F58050C0F81411206850
:10184000E16800F58050C0F820110021206901EB0B
:10185000410500EBC50004EB8105491C0260042929
:1018600042608260C26002614261E862EED3E2637C
:1018700022646264E264A264206800F58050C0F8CB
:1018800030312068216900F58050C0F81C112168B2
:10189000206901F580514830C1F82801606821684D
:1018A0008088C1F8000360680178D0F8010041EA3F
:1018B00000202168C1F804036265102084F85100FB
:1018C00084F852000020F8BDF444025800D3CEFE44
:1018D000C0E1E40040F1E9FD40787D0100796CFC55
:1018E000005A6202001F0AFA80F0FA0240420F001A
:1018F000F0B5C16B2C3000252C462B46866950F87C
:10190000212036B30020F0BD6D1CD60019D5641C13
:10191000012C00D10B46491C042900D3091F50F8A3
:101920002120D268002A07DB520005D50122C261BE
:10193000491C042900D3091F103080E81A00012037
:10194000F0BD920013D501240B46491C11E050F85C
:101950002120D268002A01DB042DD5D34CB350F8E6
:10196000232000214FF080764FF040771FE0491C84
:10197000641C0429EBD3091FE9E715691560D660DB
:1019800055690DB19560D760D56845F00045D560C3
:10199000D0F820C0BCF1000F02D045F08045D560E2
:1019A0005B1C042B00D31B1F491C50F82320A142B1
:1019B000E3D300218161A5E770470000334800B5FB
:1019C00087B0016841F001010160016801F0010187
:1019D0000591016841F002010160016801F0020116
:1019E0000591016841F004010160016801F0040102
:1019F0000591016841F0400101600068694600F00E
:101A000040000590022003900190002002900B20DE
:101A10000490862000901E4800F022FA4FF40050F7
:101A200000901C48694600F01BFA322000901A48CA
:101A3000694600F015FA42F604000090174869461E
:101A400000F00EFA002207213D2000F0BBFB3D20F4
:101A500000F0ABFB0D480838016841F4004101601B
:101A6000016801F400410591016841F48031016091
:101A7000016801F480310591016841F40031016091
:101A8000006800F40030059007B000BDE044025843
:101A900000000258000402580008025800180258BA
:101AA00070472DE9F041044600681F46D0F8003227
:101AB000DB0718D1D0F8003223F0787343EA4151A4
:101AC00021F4F81141EA024141F00D01C0F8001281
:101AD00000F0C4FA4FF47A76054607E000F0BEFA4B
:101AE000401BB04202D90120BDE8F0812068D0F847
:101AF0000002C007F2D12068D0F8040280B238603A
:101B00000020F1E7084808B56946006811F087F839
:101B10000098002807D005494FF080500860BFF3B7
:101B20004F8FBFF36F8F08BD7401002404ED00E0F8
:101B300010B519B190F85220102A01D0012010BD23
:101B4000FFF73CFA002010BD70B505460068D0F8DC
:101B5000000220F4706401F007FA1149114A0144AF
:101B6000914202D244F4007416E00F490F4A014436
:101B7000914202D244F440740EE00D490D4A0144F2
:101B8000914209D30C4908440C49884202D244F4DA
:101B9000807401E044F480642868C0F8004270BD9D
:101BA00000D3CEFEC0E1E40040F1E9FD40787D01C4
:101BB00000796CFC005A6202001F0AFA80F0FA02F7
:101BC00010B590F851300021C26A102B01D00120CD
:101BD00010BD232380F851300023D468491C042908
:101BE00044F08044D46000D3091F5B1C00EB8102E9
:101BF000042BD26AF1D30121C16401680A6842F062
:101C000002020A6001680A6842F001020A60016883
:101C1000D1F8002D42F00102C1F8002D016801F554
:101C20008051D1F8042142F00102C1F80421016879
:101C300001F58051D1F8082142F00102C1F80821D4
:101C4000016801F58051D1F8602142F48172C1F838
:101C50006021102180F85110222180F85210006874
:101C600000F58050D0F834114DF241021143C0F814
:101C70003411002010BD10B590F85110C26AE9B3BC
:101C8000232180F85110016801F58051D1F83431D9
:101C900048F24104A343C1F83431016801F5805191
:101CA000D1F8043123F00103C1F80431016801F5D2
:101CB0008051D1F8083123F00103C1F808310168DF
:101CC0000B6823F001030B600168D1F8003D43F07D
:101CD0000103C1F8003D01680B6823F002030B60AB
:101CE0000021D368491C042923F08043D360F8D332
:101CF0000021C164102180F8511000E003E080F859
:101D00005210002010BD012010BD2DE9F0411546F4
:101D1000044621B194F85100102804D04FE0606DC2
:101D200040F0010007E000222046FEF793FF20B1BB
:101D3000606D40F00200606541E0A06A04EB800144
:101D4000401C04288E69A06201D3001FA06204EB2E
:101D500080008169206800F58050C0F8201100F0F3
:101D60007DF907464FF010081AE0206800F5805012
:101D7000D0F86001C0040BD5606D40F008006065CC
:101D8000206800F58050D0F86001A065E02014E0E4
:101D9000681C05D000F062F9C01BA84208D83DB10C
:101DA000F0680028E1DB84F851800020BDE8F08174
:101DB000606D40F004006065404684F851000120E9
:101DC000F4E770477047000070B505460068D0F82A
:101DD0000042E4071FD1D0F8000220F0787040EAFA
:101DE0004150114920F4F81040EA024020F00C0064
:101DF000001D9AB2C1F8042240F00100C1F80002AF
:101E000000F02CF94FF47A76044606E000F026F94B
:101E1000001BB04201D9012070BD2868D0F8000233
:101E2000C007F3D170BD0000008002400248016885
:101E300041F001010160704720040058B0F5005FD7
:101E400001D1FEF7E1BD70474FF0B04110B5D1F8B8
:101E50008820024203D0C1F88800FFF7EFFF10BDD1
:101E60002DE9F84F6C4C00224FF0B04A4FF0010BB7
:101E70004FF0030E4FF00F090B680BFA02F73B40CF
:101E8000BB4270D14D68022D01D0122D12D1D50860
:101E900000EB850CDCF820605507ED0E09FA05F81B
:101EA00026EA0806D1F8108008FA05F848EA06087C
:101EB000CCF82080D0F80080560091F804C00EFACB
:101EC00006F50CF0030C28EA05080CFA06FC4CEAAF
:101ED000080CC0F800C0D1F804C0BCF1010F08D054
:101EE000BCF1020F05D0BCF1110F02D0BCF1120FF2
:101EF00016D1D0F808C0D1F80C802CEA050C08FAED
:101F000006F848EA0C08C0F80880D0F804C02CEAAB
:101F1000070C0F79C7F30017974047EA0C07476093
:101F2000C768AF438D68B5403D43C5604D68ED005F
:101F30006BD53A4D2E6846F002062E602D6822F0D1
:101F4000030606F1B04605F002050095D6F808C470
:101F500095072F0F09FA07F52CEA050C304DA8421A
:101F600002D100252EE050E02E4DA84201D10125DE
:101F700028E02D4DA84201D1022523E02B4DA84297
:101F800001D103251EE02A4DA84201D1042519E004
:101F9000284DA84201D1052514E0274DA84201D1C2
:101FA00006250FE0254DA84201D107250AE0244D62
:101FB000A84201D1082505E0224DA84201D10925FA
:101FC00000E00A25BD4045EA0C05C6F8085425681E
:101FD0004E689D43F60300D51D43256065684E6835
:101FE0009D43B60300D51D436560DAF800505646A0
:101FF0004F689D43FF0200D51D43356075684F68EB
:102000009D43BF0200D51D437560521C102AFFF48A
:1020100033AFBDE8F88F000080000058F444025848
:10202000000002580004025800080258000C025830
:10203000001002580014025800180258001C0258E0
:10204000002002580024025842694A404261704709
:102050000AB10183704741837047000001488068DE
:10206000704700002C000024024881680278114467
:10207000816070472C000024032010B500F0C2F8E6
:102080000F2000F007F808B1012010BD00F08CF817
:10209000002010BD00B50022014637208BB000F0B3
:1020A00091F8372000F081F81648016841F02001CE
:1020B0000160006809A900F020000890684600F05F
:1020C00023FF0598B0B100F069FF40000E490F4AA8
:1020D000B0FBF1F10E48026040F2E732491E416068
:1020E0000021C0E90321816001F04EFB28B10120ED
:1020F0000BB000BD00F052FFE8E7054801F060FBBF
:10210000F6E70000E844025840420F000014004087
:102110005C120024134A41781160111D03780A1DD6
:10212000E3B143680B60017BC37A090741EA0361AD
:10213000837A41EAC341437B41EA8341837B41EA9D
:102140004341C37B41EA0341437A41EA0321037AD5
:10215000007841EA430101431160704700200860A4
:102160001060704798ED00E0BFF35F8F044801688E
:1021700021F480310160024900207031086070470D
:1021800024ED00E0074940F0010008600548703880
:10219000016841F480310160BFF34F8FBFF36F8F4F
:1021A0007047000094ED00E07047002809DB012132
:1021B00000F01F0291404009800000F1E020C0F8CB
:1021C000001170470E4BF0B41B68C3F30223C3F138
:1021D0000704042C00D904241D1D072D01D200235F
:1021E00000E0DB1E012606FA04F56D1E0D409D4041
:1021F0009E40761E164045EA0601F0BC02F06EBE17
:102200000CED00E0064A00F0070110684FF6FF03EE
:10221000184040EA0120034908431060704700005D
:102220000CED00E00000FA0510B500F0E3FE0849EF
:1022300009684FF4807292FAA2F201F47061B2FA66
:1022400082F2D140034A515CC8400349086010BD86
:10225000184402585A3601083800002410B500F01E
:1022600083FE07490968102292FAA2F201F0700178
:10227000B2FA82F2D140034A515CC84010BD00005E
:10228000204402585A360108364930B50A680968B0
:1022900012F00302344BC1F305311B68334C03F0D9
:1022A00010032468DFED320AB7EE001AC4F3CC0441
:1022B00014FB03F300EE103A2E4BB8EE400A07D0A1
:1022C0002D4C012A01D0022A4AD0B4FBF1F10BE0D7
:1022D000244C283C22689506284A03D52468C4F378
:1022E000C104E240B2FBF1F101EE901A1968B8EEB8
:1022F000612AC1F3080101EE901A1968F8EE611A1B
:1023000040EE201A31EE810A22EE000AC1F3462186
:10231000491C00EE901AF8EE600A80EE201AFCEEDE
:10232000C10AC0ED000A1968C1F30641491C00EE5C
:10233000901AF8EE600A80EE201AFCEEC10AC0ED99
:10234000010A1968C1F30661491C00EE901AF8EE03
:10235000600A80EE201ABCEEC10A80ED020A30BD90
:10236000074ABFE7284402582C4402583C4402580C
:10237000000000393844025800093D000090D003A5
:1023800000127A00364930B50A68096812F0030273
:10239000344BC1F305511B68334C03F4807324683C
:1023A000DFED320AB7EE001AC4F3CC0414FB03F3DA
:1023B00000EE103A2E4BB8EE400A07D02D4C012A01
:1023C00001D0022A4AD0B4FBF1F10BE0244C283CA6
:1023D00022689506284A03D52468C4F3C104E24064
:1023E000B2FBF1F101EE901A1968B8EE612AC1F35F
:1023F000080101EE901A1968F8EE611A40EE201AF1
:1024000031EE810A22EE000AC1F34621491C00EE9A
:10241000901AF8EE600A80EE201AFCEEC10AC0EDB8
:10242000000A1968C1F30641491C00EE901AF8EE43
:10243000600A80EE201AFCEEC10AC0ED010A19689C
:10244000C1F30661491C00EE901AF8EE600A80EEB6
:10245000201ABCEEC10A80ED020A30BD074ABFE770
:10246000284402582C4402584444025800000039C1
:102470004044025800093D000090D00300127A0049
:102480002DE9F84F0446006800252E46010104F1AD
:102490002400FE4FDFF8F88300901DD5606E50B128
:1024A000B0F5801F0CD0B0F5001F0ED0B0F5401F66
:1024B0001DD001250FE0386840F40030386016E088
:1024C0000221201D01F0B6FC03E00098022101F07A
:1024D00029FD05000BD02E462088C00523D5606D50
:1024E00005281ED2DFE800F00C11161B1B00D8F8DF
:1024F0000010626E21F440111143C8F80010EBE7A0
:10250000386840F40030386009E00021201D01F0F7
:1025100091FC03E00098002101F004FD05466DB137
:1025200000E001252E432088800528D5A06D802855
:102530001ED00CDC90B140280ED114E0D8F8001069
:10254000626D21F007011143C8F80010EBE7C028C5
:1025500013D0B0F5807F10D001250FE0386840F42B
:102560000030386009E00021201D01F063FC03E029
:102570000098002101F0D6FC054685B12E43208845
:10258000DFF8109340052CD5D4F8A400B0F5800FE7
:1025900020D00DDCA0B1B0F5001F0FD115E0D8F8A8
:1025A0000010A26D21F4E0711143C8F80010E6E7B5
:1025B000B0F5C00F13D0B0F5000F10D001250FE01B
:1025C000386840F40030386009E00021201D01F037
:1025D00031FC03E00098002101F0A4FC054675B130
:1025E0002E43208800052DD5D4F8A800B0F1007F37
:1025F00021D00EDCA8B1B0F1807F10D116E0D9F85F
:102600000010D4F8A42021F460011143C9F800108F
:10261000E7E7B0F1407F13D0B0F1806F10D0012513
:102620000FE0386840F40030386009E00021201DD8
:1026300001F000FC03E00098002101F073FC054666
:102640006DB12E43206880011FD5A06CD8B1102831
:102650000FD0202812D0302815D0012514E0D9F849
:102660000010D4F8A82021F0E0611143C9F800104F
:10267000E8E7386840F40030386004E00221201DAB
:1026800001F0D8FB05466DB12E432088C0042BD540
:10269000E06DB0F5005F20D00DDCA0B1B0F5805F3B
:1026A0000FD115E07A48001F0168A26C21F03001BB
:1026B00011430160E9E7B0F5405F13D0B0F5804FFA
:1026C00010D001250FE0386840F40030386009E090
:1026D0000021201D01F0AEFB03E00098002101F075
:1026E00021FC054685B12E432088800429D5206E23
:1026F000B0F5403F23D010DC08B3B0F5803F14D0D4
:10270000B0F5003F0FD115E0D8F80010E26D21F4CC
:10271000E0411143C8F80010E6E7B0F5802F0ED075
:10272000B0F5A02F0BD001250AE00121201D01F0FA
:1027300081FB03E00098012101F0F4FB05468DB117
:102740002E43208840042AD5D4F8AC00B0F1405F75
:1027500023D010DC08B3B0F1805F14D0B0F1005F7B
:102760000FD115E0D8F80010226E21F4E0211143BA
:10277000C8F80010E5E7B0F1804F0ED0B0F1A04FDF
:102780000BD001250AE00121201D01F053FB03E0DD
:102790000098012101F0C6FB05466DB12E4320884B
:1027A00000041FD5E06ED8B1B0F1805F0ED0B0F15B
:1027B000005F10D0012514E0D9F80010D4F8AC2047
:1027C00021F0E0411143C9F80010E8E7386840F40F
:1027D0000030386004E00121201D01F02BFB05468C
:1027E0006DB12E432068C0011ED5606CD0B10128A8
:1027F0000ED0022811D0032814D0012513E0D8F8F8
:102800000010E26E21F040511143C8F80010E9E7D2
:10281000386840F40030386004E00221201D01F0E7
:1028200009FB054675B12E432068DFF86CB0400205
:102830005AD51A48016841F480710160FFF70EFC17
:1028400082460EE01248001F0168626C21F003010D
:1028500011430160E8E7FFF701FCA0EB0A006428E0
:102860003AD80E480068C005F5D5B5BB0948183000
:102870000068B4F8B01000F4407001F44071884270
:1028800019D00448183001680AE000002C440258AE
:102890005044025858440258104402580048025804
:1028A000026821F4407142F480320260026822F42E
:1028B000803202600160D4F8B000B0F5807F22D190
:1028C000FFF7CCFB824609E0FFF7C8FBA0EB0A014B
:1028D00041F28830814201D9032504E0FE480068B6
:1028E0008007F1D57DB12E432078DFF8F0A3C00733
:1028F0003CD0A06F182837D025DC78B3082828D022
:10290000102824D12BE0D4F8B000C0F30121032912
:102910000ED0DBF8001021F47C51CBF80010EE480B
:102920000168B4F8B020C2F30B0211430160DBE789
:10293000DBF80020EA4B22F47C5203EA1010024339
:10294000CBF80020EBE720280ED028280CD001255A
:102950000BE00121201D01F06DFA04E004E0009875
:10296000012101F0DFFA05465DB12E432078800792
:102970001ED5606F062819D2DFE800F0160C11167C
:102980001616DAF80010A26F21F038011143CAF8C8
:102990000010EBE70121201D01F04CFA03E0009844
:1029A000012101F0BFFA054675B100E001252E4373
:1029B000207840071FD5D4F89000062819D2DFE808
:1029C00000F0160C11161616DAF80010626F21F0DE
:1029D00007011143CAF80010EAE70121201D01F0A8
:1029E00029FA03E00098012101F09CFA05469DB107
:1029F00000E001252E43207880062BD5D4F88C00EA
:102A0000B0F1405F24D011DC10B3B0F1805F15D07D
:102A1000B0F1005F10D116E0D9F80010D4F8902082
:102A200021F007011143C9F80010E4E7B0F1804F2D
:102A30000ED0B0F1A04F0BD001250AE00021201DDF
:102A400001F0F8F903E00098022101F06BFA054665
:102A50008DB12E43207840062BD5D4F89800B0F5E0
:102A6000406F24D011DC10B3B0F5806F15D0B0F5F5
:102A7000006F10D116E0DAF80010D4F88C2021F0A5
:102A8000E0411143CAF80010E4E7B0F5805F0ED0D2
:102A9000B0F5A05F0BD001250AE00021201D01F058
:102AA000C9F903E00098022101F03CFA05468DB116
:102AB0002E43207800062BD5D4F89C00B0F5C04FEB
:102AC00024D011DC10B3B0F5005F15D0B0F5804F05
:102AD00010D116E0D9F80010D4F8982021F4E05174
:102AE0001143C9F80010E4E7B0F5004F0ED0B0F57F
:102AF000204F0BD001250AE00021201D01F09AF99A
:102B000003E00098022101F00DFA054665B32E435B
:102B1000207800070BD5D4F88000B0F5805F2DD069
:102B2000DAF8002022F440520243CAF8002020784C
:102B3000C0060BD5D4F89400B0F5807F24D0D9F826
:102B4000002022F440720243C9F8002020680003EC
:102B50002CD5D4F8A000E8B1B0F5803F1FD0B0F577
:102B6000003F21D0012520E0D9F80010D4F89C20A6
:102B700021F460411143C9F80010C9E7009802210F
:102B800001F0D0F90643D2E70098022101F0CAF91A
:102B90000643DBE70021201D01F04CF903E000981B
:102BA000022101F0BFF9054685B12E43206840039C
:102BB00022D5D4F88400B0F5801F11D0B0F5001FE5
:102BC00013D0B0F5401F15D0012514E0D9F800103E
:102BD000D4F8A02021F440311143C9F80010E5E7F2
:102BE000386840F40030386004E00098012101F0BA
:102BF00099F9054655B12E432068C0031CD5E06CF9
:102C000070B1B0F5803F10D0012514E0DAF8001063
:102C1000D4F8842021F440111143CAF80010EBE7E6
:102C2000386840F40030386004E00221201D01F0D3
:102C300001F90546C5B12E432068800004D50098EF
:102C4000022101F06FF90643206880031BD5E06F75
:102C5000B8B1B0F5807F10D0B0F5007F11D0B0F5DD
:102C6000407F0ED001250DE01C4808380168E26C59
:102C700021F4803111430160DEE7386840F4003010
:102C8000386045B32E432068C00207D5D8F800004D
:102C9000226F20F000401043C8F800002068C000F8
:102CA00008D5DBF80010D4F8B42021F4804111439A
:102CB000CBF800102068800207D5D8F80010A26E6B
:102CC00021F080711143C8F800102068400014D52D
:102CD000DBF8001006E01EE070440258544402582D
:102CE000CFFFFF0021F40041CBF80010DBF800100B
:102CF000D4F8B8201143CBF800102068002806DA79
:102D00000A480168226D21F04051114301605EB113
:102D10000120BDE8F88FDAF80010E26F21F440716D
:102D20001143CAF80010AEE70020F2E74C44025805
:102D30002DE9F047DFF8BC9104460E46D9F80000B3
:102D400000F00700B0420CD2D9F8001021F00701C2
:102D50003143C9F80010D9F8000000F00700B04274
:102D60007ED12078DFF89081800707D5D8F8001051
:102D7000E26821F00F011143C8F800102078C00765
:102D800062D0D8F80010A26821F470611143C8F82D
:102D9000001059496068183902281CD003281DD03A
:102DA000096801281DD04907002960DA524F083F01
:102DB000396821F0070101433960FFF74FF90546F3
:102DC000606841F28831022813D003281ED0012800
:102DD0008A4627D034E009688903E5E70968890154
:102DE000E2E7C905E0E7FFF739F9411B514501D991
:102DF00023E08A463868C0F3C2000228F3D123E0FA
:102E0000FFF72CF9411B514501D916E08A46386875
:102E1000C0F3C2000328F3D116E0FFF71FF9411BEE
:102E200051450AD83868C0F3C2000128F5D10BE03B
:102E3000FFF714F9411B514502D90320BDE8F08783
:102E4000386810F0380FF3D1D9F80010484601F077
:102E50000701B1420DD9016821F00701314300E0BB
:102E600005E00160006800F00700B04201D00120D9
:102E7000E4E72078400707D5D8F80010226921F050
:102E800070011143C8F80010207801071B4805D5D0
:102E90000168626921F07001114301602178C9065F
:102EA00005D50168A26921F4E06111430160207831
:102EB000800607D51149091D0868E26920F07000F5
:102EC0001043086000F096F8D8F800104FF48072B4
:102ED00092FAA2F201F47061B2FA82F2D140084A89
:102EE000515CC840074908600F20FFF7D3F8002065
:102EF000A4E7000000200052184402581C44025865
:102F00005A360108380000243F220260144A126831
:102F100002F007024260124A0832136803F4706339
:102F20008360136803F00F03C360126802F070023D
:102F300002610B4A0C32136803F07003436112689C
:102F400002F4E0628261064A1032126802F07002F6
:102F5000C2610448006800F0070008607047000084
:102F6000104402580020005210B5FFF75DF90849DF
:102F70000968012292FAA2F201F00F01B2FA82F27C
:102F8000D140044A515CC8400349086010BD0000AC
:102F9000184402585A3601083C00002410B5FFF7C7
:102FA000E3FF07490968102292FAA2F201F07001CA
:102FB000B2FA82F2D140034A515CC84010BD000011
:102FC0001C4402585A36010810B5FFF7CDFF0749D7
:102FD00009684FF4807292FAA2F201F4E061B2FA49
:102FE00082F2D140024A515CC84010BD1C440258D4
:102FF0005A3601083548F0B50068364D10F03801F2
:10300000334809D00411082904D0C61010290BD068
:1030100018290BD02046F0BD29688906FBD5296800
:10302000C1F3C101C840F0BD3046F0BD2749183199
:103030000A68096812F00302274BC1F305111B68E7
:10304000264F03F001033F68DFED250AB7EE001AB3
:10305000C7F3CC0717FB03F300EE103A214BB8EE91
:10306000400A06D0012A01D0022A2BD0B4FBF1F08D
:1030700008E02A68920603D52A68C2F3C102D0404C
:10308000B0FBF1F001EE900A1868B8EE612AC0F3C7
:10309000080001EE900A1868F8EE611A40EE201A56
:1030A00031EE810A22EE000AC0F34620401C00EEF9
:1030B000900AF8EE600A80EE201ABCEEC10A10EE0B
:1030C000100AF0BDB6FBF1F0DCE700001044025836
:1030D0000090D003004402582C4402583444025853
:1030E00000000039304402582DE9F05F04460078B2
:1030F000DFF8FC8341F28839DFF8F8A3FE4DC00702
:103100004ED0D8F800104046C1F3C20102291AD0AF
:103110000068C0F3C200032805D1DAF8000000F00F
:10312000030002280FD06068B0F5803F12D010B1C4
:10313000B0F5A02F19D0286820F4803028602868C6
:1031400020F4802009E02868800329D560680028E1
:1031500074D025E0286840F480302860606890B121
:10316000FEF77CFF06464F4609E0286840F48020C1
:103170002860EFE7FEF772FF801BB8427DD8286811
:103180008003F7D50CE0FEF769FF06464F4604E0E2
:10319000FEF764FF801BB842F0D828688003F7D49C
:1031A0002078D64F80075AD5D8F8001040464FF403
:1031B0007C3B11F0380F13D00068C0F3C200032825
:1031C00003D1DAF8000080070AD0E068A8B32968C4
:1031D00021F0190101432960FEF740FF06461DE07A
:1031E0002868400702D5E0680028B1D02868E16867
:1031F00020F0190008432860FEF730FF064604E07F
:10320000FEF72CFF801B0228B8D828684007F7D5A6
:1032100007E0FEF723FF801B0228AFD8286840078D
:10322000F7D538689BFAABF220F47C312069B2FA0A
:1032300082F290400143396011E000E0AEE028687E
:1032400020F001002860FEF709FF064604E0FEF7C3
:1032500005FF801B022891D828684007F7D4207802
:10326000C00655D5D8F8001040464FF0F84BC1F3D2
:10327000C201012917D0006800E0EDE0C0F3C200F0
:10328000032805D1DAF8000000F0030001280AD075
:10329000E069002828682CD040F080002860FEF704
:1032A000DDFE064616E02868C00502D5E0698028E4
:1032B00074D138689BFAABF220F0F841206AB2FA78
:1032C00082F290400143396022E0FEF7C7FE801B86
:1032D000022899D82868C005F7D538689BFAABF260
:1032E000216AB2FA82F220F0F84091400843386037
:1032F0000EE020F080002860FEF7B0FE064604E0F5
:10330000FEF7ACFE801B022887D82868C005F7D4DA
:103310002078000724D5774F60694C37002838683B
:103320000FD040F001003860FEF798FE064604E03A
:10333000FEF794FE801B02288DD838688007F7D5E9
:103340000EE020F001003860FEF788FE064604E03B
:10335000FEF784FE801B02287ED838688007F7D4E9
:103360002078800623D5A069002828680FD040F473
:1033700080502860FEF772FE064604E0FEF76EFEFF
:10338000801B022868D828688004F7D50FE020F455
:1033900080502860FEF762FE064605E0D6E0FEF7A4
:1033A0005DFE801B022857D828688004F7D4207857
:1033B000400744D5524F386840F480703860FEF7BB
:1033C0004DFE064604E0FEF749FE801B642843D804
:1033D0003868C005F7D5474FA068483701280AD09C
:1033E00008B1052811D0386820F00100386038682D
:1033F00020F0040002E0386840F001003860A06866
:1034000088B1FEF72BFE064609E0386840F004005C
:103410003860F0E7FEF722FE811B49451CD838686A
:103420008007F7D50BE0FEF719FE064604E0FEF72D
:1034300015FE811B49450FD838688007F7D4606AAC
:10344000F0B3D8F80010C1F3C20103297ED00228DE
:10345000286820F0807000E079E0286003D0FEF753
:10346000FDFD044687E0FEF7F9FD064604E0FEF7A1
:10347000F5FD801B02287BD828688001F7D4DAF894
:10348000001040F2F3329143E26A41EA0211A26A6B
:103490001143CAF8001094F834004FF4FE02218E54
:1034A0004002491EA0F5007080B2C1F30801084334
:1034B000218F491E02EA0141084394F83C1000E0C4
:1034C0005CE0491E120202EA016108430949083121
:1034D00008600B1D19684FF6F872A06C914392FAC0
:1034E000A2F2B2FA82F2904001431960014809E069
:1034F0001044025828440258004402580444025818
:1035000000480258001D0168226C21F00C01114393
:1035100001600168626C21F00201114301600168E1
:1035200041F480310160016841F4003101600168BB
:1035300041F480210160016841F0010101602868C7
:1035400040F080702860FEF789FD01E018E00FE090
:10355000044604E0FEF782FD001B022808D8286814
:103560008001F7D50AE0FEF779FD001B022802D999
:103570000320BDE8F09F28688001F4D40020F8E71C
:103580000120F6E770477047704700002DE9F041D1
:10359000044690F880001D4601280FD0012084F8D1
:1035A000800094F8810000264FF4800701280ED097
:1035B0006068B84209D1A06838B902E00220BDE8CD
:1035C000F08194F88100042801D0022030E071B32A
:1035D0006AB365B394F88100042802D0052084F80A
:1035E0008100C4F88460E165A4F86050A4F86250DA
:1035F0006266A4F86850A4F86A5026676667206877
:10360000816821F440418160E0684FF480430F28D5
:1036100003D9E16F8969994209D107284FF4005C09
:1036200009D9E16F8A6962452AD09A4228D00120DF
:1036300084F88060C3E7A06F8169614505D1B4F863
:103640006210491C4908A4F862108069984205D1AB
:10365000B4F86200C01C8008A4F86200E06F8169C1
:10366000614505D1B4F86A10491C4908A4F86A10EC
:103670008069984219D1B4F86A00C01C800812E031
:103680000F2812D8A06F8069984205D1B4F8620063
:10369000401C4008A4F862008869984205D1B4F83B
:1036A0006A00401C4008A4F86A0094F881000428CD
:1036B0004DD0E16F284808642848E16FC863E16F86
:1036C0002748C864E06F0665B4F86A302168626E06
:1036D000E06F3031FDF74EFD2068816841F4804194
:1036E0008160A06F0664A06FC663A06FC664A06F00
:1036F0000665B4F862302268E16DA06F2032FDF7F4
:1037000039FDA06FC069B0F5807F206841686FF314
:103710000F0100D0294341602068816841F40041D5
:1037200081602068016941F4587101612068016875
:1037300041F0010101606068B84204D1206801686D
:1037400041F400710160304684F8806037E7E16F32
:10375000044808640448B0E71542000847420008DE
:10376000DF4100080B4200081F4200087047704705
:1037700003490A6822F4600202430A6070470000AD
:10378000040400587047704710B5040003D094F843
:103790003D0010B107E0012010BD002084F83C007E
:1037A000204600F00CF8022084F83D002068211D1E
:1037B00000F060FE012084F83D00002010BD70473D
:1037C0000168CA6842F00102CA600068018841F0DD
:1037D0000101018000207047704770B50446006801
:1037E00001694FF00005C943890715D4C168C94371
:1037F000890711D4E91E01610120207720688069C2
:103800008007204602D0FFF7E7FF04E000F0A5F8AC
:10381000204600F0A3F8257720680169C9434907CD
:1038200017D4C168C943490713D46FF0040101617B
:10383000022020772068806910F4407F204602D063
:10384000FFF7CAFF04E000F088F8204600F086F891
:10385000257720680169C943090716D4C168C9439F
:10386000090712D46FF00801016104202077206855
:10387000C0698007204602D0FFF7AEFF04E000F0E9
:103880006CF8204600F06AF8257720680169C94382
:10389000C90617D4C168C943C90613D46FF0100113
:1038A0000161082020772068C06910F4407F20461D
:1038B00002D0FFF791FF04E000F04FF8204600F03F
:1038C0004DF8257720680169C943C90708D1C16847
:1038D000C943C90704D1891E0161204600F03FF8A1
:1038E000206801696FF08005C943090607D4C168E3
:1038F000C943090603D405612046FFF743FF20684A
:103900000169C943C90507D4C168C943090603D47D
:1039100005612046FFF736FF20680169C943490663
:1039200009D4C168C943490605D46FF0400101615B
:10393000204600F016F820680169C94389060BD4B7
:10394000C168C943890607D46FF020010161204690
:10395000BDE87040FFF717BF70BD70477047FEF7B6
:1039600083BB704710B5040003D094F8790010B100
:1039700007E0012010BD002084F87800204600F008
:1039800026F8242084F879002068016821F00101DC
:103990000160204600F060FE0128EBD0606B10B1A2
:1039A000204600F0C7FD2068416821F49041416045
:1039B0002068816821F02A0181602068016841F057
:1039C000010101602046BDE8104000F017BE7047BD
:1039D000294930B50A68002A07DA0A6842F000422D
:1039E0000A608169891C816130BD234A083A1268E6
:1039F000224C2262204A121F127884F824201E4A88
:103A0000D21E1278A2621C4A0C321268E2621A4A72
:103A1000921E12882286096861631749091D096888
:103A2000A163154910310968E16300211F4A14A5FB
:103A30006B5C1385D3695B06FCD5491CC9B2292987
:103A4000F6D31B4900230B600A68002AFCD00268E9
:103A50002260426862608268A260C268E2600269B5
:103A60002261426962618269A261C069E0610B60A2
:103A700008680028FCD030BD2CED00E05024002464
:103A80000D0A456E74657220486172644661756CFA
:103A9000745F48616E646C65722C20537973746531
:103AA0006D2048616C742E0D0A000000001001406A
:103AB000400000242DE9F04FB5B001270020059704
:103AC000239005A8FEF7DCFC4F4C206840F0010075
:103AD0002060206800F001003490206840F0010070
:103AE0002060206800F001003490474810300168E1
:103AF00041F01001016000680726444D4FF4007842
:103B000000F0100034904FF0030ACDF80080CDE9AA
:103B100003A64FF002096946CDE901972846FEF752
:103B20009FF9B8026946049600902846FEF798F976
:103B3000012200212520FEF745FB2520FEF735FB5D
:103B4000334D4FF4E13B0C2359460022284601F047
:103B500099FE286A40F040002862288B40F0080057
:103B60002883286840F020002860206840F0080082
:103B70002060206800F008003490206840F00800C1
:103B80002060206800F0080034901F480830016869
:103B900041F480210160006869461E4C00F48020D9
:103BA0003490A8150297CDE90009CDE903A6204677
:103BB000FEF756F969462046CDF800800496FEF7D8
:103BC0004FF9032200212720FEF7FCFA2720FEF7F9
:103BD000ECFA114C0C2300225946204601F052FE0B
:103BE0000D492031086840F0400008600A4918314A
:103BF000088840F008000880206840F0200020601D
:103C000035B0BDE8F08F0000E044025800000258D3
:103C100000100140000C02580048004038B504462E
:103C20006A460020009001216369206898470028B7
:103C30006FF0040525DB6369012120686A46984717
:103C400000281EDB0098400701D4012038BD6369BD
:103C5000002120686A469847002812DB0098C104BA
:103C600008D44FF4045181431CD081041CD4C005F6
:103C70001CD415E063691F2120686A469847002814
:103C800001DA284638BD0098C10401D4062038BDA9
:103C9000C0F38200062805D0022805D0052805D0EB
:103CA000052038BD022038BD032038BD042038BDB2
:103CB0002DE9F8430446002000900646054660685A
:103CC000B8BBA06800B18047202020606FF00407D7
:103CD000636912216A4630469847002801DA3D465A
:103CE00007E0009800F01F00B04202D100252660D6
:103CF00002E0761C1F2EEBD920681F2802D96FF036
:103D000002053AE01DBB236900214FF400429847A9
:103D1000002823DB6369002120686A469847002851
:103D200014DBA06980474FF4FA7906466FF001086A
:103D30000FE016E0A0698047801B484508D86369FA
:103D4000002120686A469847002802DA3D4614E0C0
:103D5000454600980004EDD41DB10EE06FF0030558
:103D60000BE0A06980474FF4FA670646A0698047D8
:103D7000801BB842FAD9012060602846BDE8F8836C
:103D800088B1CA687AB18A686AB10A695AB10A68A0
:103D900082604A68C260CA6842618A6802610969D1
:103DA0008161002070474FF0FF3070477FB5FEF70C
:103DB000DBF91D4801250024019007208DF808003B
:103DC0008DF80F5003268DF80B6068468DF80E4075
:103DD0008DF800508DF80D408DF80A408DF80140A7
:103DE0008DF809408DF80C40FEF794F90F480190CA
:103DF0000D208DF8080068468DF80F408DF80B6097
:103E00008DF80E508DF800508DF80D408DF80A4059
:103E10008DF801508DF809408DF80C40FEF77AF9C5
:103E20000420FEF7AFF97FBD0000043000400430ED
:103E3000FEE770472DE9F047DFF8E48004460F46BF
:103E40004FF00009D8F80000C043800709D0344D76
:103E5000283D286820F080602860FEF7FFF80646BD
:103E600007E00120BDE8F087FEF7F8F8801B022884
:103E70004ED828680001F7D4D8F80010226821F441
:103E80007C3141EA0231C8F80010207A4FF4FE027A
:103E9000A1884002491EA0F5007080B2C1F308015C
:103EA0000843A189491E02EA01410843217C12020C
:103EB000491E02EA01610843194910310860184897
:103EC000001D0168626921F0C001114301600168B1
:103ED000A26921F02001114301606FB10168012F37
:103EE0000ED041F400110160286840F08060286025
:103EF000FEF7B4F804460DE0016841F40021F2E752
:103F000041F48011EFE7FEF7A9F8001B022801D960
:103F10000320A7E728680001F5D54846A2E700007E
:103F2000284402582DE9F047DFF8E48004460F46A4
:103F30004FF00009D8F80000C043800709D0344D85
:103F4000283D286820F080502860FEF787F8064654
:103F500007E00120BDE8F087FEF780F8801B02280B
:103F60004ED828688000F7D4D8F80010228821F0B5
:103F70007C7141EA0251C8F80010207A4FF4FE0229
:103F8000A1884002491EA0F5007080B2C1F308016B
:103F90000843A189491E02EA01410843217C12021B
:103FA000491E02EA0161084319491831086018489E
:103FB000001D0168626921F44061114301600168DC
:103FC000A26921F40071114301606FB10168012FF2
:103FD0000ED041F080710160286840F08050286068
:103FE000FEF73CF804460DE0016841F48001F2E779
:103FF00041F40001EFE7FEF731F8001B022801D978
:104000000320A7E728688000F5D54846A2E700000E
:10401000284402580C4800B587B0016841F00201FD
:1040200001600068694600F00200059001200190DF
:104030000020029003200390042000900348FDF725
:104040000FFF07B000BD0000E04402580004025812
:104050007047000001490420088070471804025886
:1040600001490420088070471A0402582DE9F041E4
:1040700007460B4815460E46007808B900F062FE68
:10408000EFF31184202080F311882A463146384608
:1040900000F008F8E1B281F31188BDE8F08100007A
:1040A0009024002470B500EB40000E4613491446DE
:1040B00001EBC005E86A183520B101280FD00228AD
:1040C00005D113E0284600F071FEA04201D2002481
:1040D00011E022463146284600F0A0FE0BE02846BB
:1040E00000F064FEA042F4D20446F2E731462846CE
:1040F00000F067FE0446204670BD000090240024B6
:1041000010B502685169936943F00803936102682E
:10411000936943F0100393610268136823F001036D
:1041200013600268136940F26B34A34313610268A1
:10413000936823F44043936090F88120042A0CD0C4
:104140008A060AD5D0F8842042F08002C0F8842084
:104150000268936943F02003936190F88120032A59
:104160001DD04A060AD5D0F8842042F00402C0F8D7
:1041700084200268936943F040039361826AB2F538
:10418000800F0CD10A060AD5D0F8842042F0020232
:10419000C0F884200268936943F0800393618A0524
:1041A0000AD5D0F8842042F00102C0F884200268C9
:1041B000936943F400739361C9050AD5D0F884105C
:1041C00041F00801C0F8841001688A6942F48072E5
:1041D0008A610021A0F86210A0F86A1010BD10B525
:1041E000846BFCF7C5FF02280ED02046FFF788FF3E
:1041F000D4F8840040F01000C4F88400012084F852
:1042000081002046FFF7BEF910BD10B5806BFFF7A7
:10421000BBF910BD10B5806BFFF7A9FA10BD10B542
:10422000806B90F88110072909D0C16FC969B1F579
:10423000807F05D00068016941F00801016110BD6F
:10424000FFF7A1F910BD10B5806B90F88110072918
:1042500009D0816FC969B1F5807F05D00068016917
:1042600041F00801016110BDFFF780FA10BD0000A8
:10427000402010B572B680F31188BFF34F8FBFF3A3
:104280006F8F62B60EF084FF18B104494FF0805072
:104290000860002080F3118810BD000004ED00E0EC
:1042A000294830B59DB0016821F00401016026481D
:1042B00000240C30016841F440410160016801F4C0
:1042C00040411B9101688904FCD5012000900AAB94
:1042D00003940004019002200794042109904FF4F4
:1042E000C87283E8070008250D90CDE90E10CDE9CE
:1042F00010546846FEF7F8FE00B1FEE714A93F200F
:104300001390032081E83100402017901A9001019A
:10431000CDE91801042113A8FEF70AFD00B1FEE75C
:104320000A48016841F0800101600848F4300168E2
:1043300041F002010160006800F002001B90FDF7EF
:1043400075FD1DB030BD00000C48025800440258F5
:104350001C48016841F4700101601B49086840F085
:1043600001000860184A0020103210600A68174BDC
:104370001A400A60144A18321060121D1060121D93
:104380001060114A28321060121D1060121D10605A
:10439000121D1060121D1060121D1060121D1060A1
:1043A000121D10600A6822F480220A6006496031FA
:1043B000086001200649C1F80801C006014980399A
:1043C0000860704788ED00E0004402587FEDF6EA8F
:1043D0000080005170B54FF080442069E16810F012
:1043E000020F204D01F0020108D039B14FF6FD70E7
:1043F0002061E1680140E160E86880472069E16888
:1044000010F0040F01F0040108D039B14FF6FB7031
:104410002061E1680140E160286980472069E16826
:1044200010F0080F01F0080108D039B14FF6F7700D
:104430002061E1680140E160686980472069E168C6
:1044400010F0100F01F010010BD0002909D04FF629
:10445000EF702061E1680140E160A869BDE870404B
:10446000004770BD100000240148FFF7B6B90000F6
:104470005C1200242DE9F04702884FF0804A254C59
:10448000254D264EA042264F264B09D0504507D039
:10449000A84205D0B04203D0B84201D0984204D11E
:1044A00022F0700C4A6842EA0C02DFF87CC0DFF8A8
:1044B0007C80A042DFF878900FD050450DD0A84204
:1044C0000BD0B04209D0B84207D0984205D0604521
:1044D00003D0404501D0484503D122F44075CA6855
:1044E0002A438D8A22F080022A4302808A68C262AF
:1044F0000A880285A04207D0984205D0604503D0C3
:10450000404501D0484501D1098A01860121416118
:10451000BDE8F087000001400004004000080040B2
:10452000000C0040000401400040014000440140F4
:104530000048014090F83410C90706D001684A6865
:10454000836B22F400321A434A6090F834108907D2
:1045500006D501684A68C36B22F480321A434A6068
:1045600090F83410490706D501684A68036C22F4B4
:1045700080221A434A6090F83410090706D5016872
:104580004A68436C22F400421A434A6090F834109F
:10459000C90606D501688A68836C22F480521A43E2
:1045A0008A6090F83410890606D501688A68C36C61
:1045B00022F400521A438A6090F83410490611D54B
:1045C00001684A68036D22F480121A434A60016D43
:1045D000B1F5801F06D101684A68436D22F4C0021C
:1045E0001A434A6090F83410090606D501684A68F3
:1045F000806D22F4002202434A607047F8B500251E
:104600000446C567FDF72AFD0746206800686FF07D
:104610007E46000708D500223B464FF40011204695
:10462000009600F06DFA60B92068006840070AD56E
:1046300000223B464FF480012046009600F060FACD
:1046400008B10320F8BD202084F8790084F87A00AE
:10465000002084F87850F8BD2DE9F04F044600683A
:104660008025FD4B0021D4F810C087B0A6680F4606
:10467000D4F81C8046EA0C06D4F814C0A26A4CEAAE
:10468000080C46EA0C0632430668DFF8D0C306EA97
:104690000C061643066020684268E66822F4405221
:1046A000324342602268A0699A4201D0266A3043B0
:1046B000A66AB6F1005F04D1D4E90B6C46EA0C0699
:1046C00030439668DFF898C306EA0C060643966006
:1046D0002068C26A666A22F00F023243C262E14E6B
:1046E0002068E14AB04210D1126802F03802182A5C
:1046F00074D005DCCAB3082A7AD0102A47D179E0F1
:10470000202A7BD0282A7CD17AE0D84EB04209D129
:10471000126802F00702062A73D2DFE802F053693A
:104720006B6D6F71D24EB04209D1126802F0070270
:10473000062A66D2DFE802F0465C5E606264CD4E17
:10474000B04209D1126802F00702062A59D2DFE806
:1047500002F0394F51535557C74EB0420BD1126832
:1047600002F00702062A4CD200E00EE0DFE802F079
:104770002A4042444648C14EB04209D1126802F074
:104780003802182A38D0BBDCB4E74FF0010538E016
:10479000BB4EB04209D1126802F00702062A30D29D
:1047A000DFE802F01026282A2C2EB64EB0420BD19C
:1047B000126802F00702062A23D2DFE802F003198A
:1047C0001B1D1F2100251CE098421AD1A64A121D6C
:1047D000126802F00702062A13D202E00CE007E09A
:1047E0000CE0DFE802F0030507090B0D022508E0E5
:1047F000042506E0402504E0082502E0102500E03D
:104800002025DFF864B2A04E9842DFF880A2ABF119
:10481000540B73D1102D31D006DC022D09D0042D9C
:104820000AD0082D2FD111E0202D29D0402D2AD1DA
:1048300007E0FDF713FD13E06846FDF725FD01983D
:104840000EE003A8FDF79EFD049809E0DBF80010D8
:104850005846890610D50068C0F3C1012AFA01F054
:10486000002811D06168894601EB410181420AD8D4
:10487000B0EB093F07D808E05046F3E78448F1E77A
:104880004FF40040EEE7012733E1102D4FF0000810
:104890004ED006DC022D0FD0042D15D0082D04D1EA
:1048A0002DE0202D4AD0402D13D00127794AA0F5C4
:1048B0004071914270D9E6E7FDF7D0FC626A0023AF
:1048C000414636F812200DE06846FDF7DDFC019800
:1048D00003E003A8FDF756FD04980023616A36F84B
:1048E00011201946FBF756FD62680902030241EAEE
:1048F00010615008181841EB080115E032E0DBF8B0
:1049000000105846890609D500680023C0F3C1018C
:104910002AFA01F0616A36F8112015E0606A002376
:1049200036F8102050460FE00023FBF733FDBDE7BB
:10493000606A002336F81020554805E0606A0023BD
:1049400036F810204FF400400021FBF723FD090248
:10495000020241EA10614FEA590010184A4641EB41
:104960000801E1E7E3694FF4004293424DD1082D7D
:1049700023D005DC8DB1012D12D0042D06D112E01B
:10498000102D35D0202D3AD0402D11D0012721F007
:104990000F00C1F3420108435AE0FEF7FFFA16E0A8
:1049A000FEF712FB13E06846FDF76EFC01980EE07F
:1049B00003A8FDF7E7FC049809E0DBF8001058466F
:1049C000890608D50068C0F3C1012AFA01F0616ABE
:1049D00036F8111010E0606A36F81010BAFBF1F0EA
:1049E0004100606801EB5001B1FBF0F081B2CEE70D
:1049F000606A36F810102648B0FBF1F0F0E7606A04
:104A000036F81000B2FBF0F0EAE7082D4AD00ADCD5
:104A10000DB3012D43D0042D7FF44DAF6846FDF753
:104A200033FC019809E0102D52D0202D55D0402D97
:104A3000F2D103A8FDF7A6FC0498616A36F81110BC
:104A4000B0FBF1F1606801EB5001B1FBF0F080B216
:104A50002168C8604DE01FE0000C0058F369FFCFEB
:104A6000FFF4FF110010014054440258004400407C
:104A700000480040004C004000500040001401403D
:104A800000780040007C0040423601080090D003CE
:104A900000093D00FFFC0F00FEF780FACDE7FEF7AE
:104AA00093FACAE7DBF80020594692060AD509684E
:104AB000C1F3C1022AFA02F1626A36F81220B1FB90
:104AC000F2F20FE0616A36F81120BAFBF2F209E067
:104AD000616A36F811200949F1E7616A36F8111068
:104AE000B2FBF1F2616802EB5102B2FBF1F189B263
:104AF000C16007B03846BDE8F08F000000093D00F6
:104B00002DE9F0411E46174688460446069D1CE0E6
:104B1000681C1AD025B1FDF7A1FA801BA84214D950
:104B20002068016821F4D07101602068816821F05B
:104B300001018160202084F8790084F87A00002047
:104B400084F878000320BDE8F0812068C16938EA64
:104B5000010004D00020B842DAD00020F3E70120A1
:104B6000F9E70000014800F009B800000402002441
:104B7000014800F003B80000300A00242DE9F0419C
:104B800004460068C569066881684FF00007A906F9
:104B900015D5808CE28AA168C0B28854E18A491C8C
:104BA0008AB2E282E1898A4200D3E782628B8A423A
:104BB00002D2618B491C6183616A01B18847280672
:104BC00017D5300615D5A08A002863D0012084F8B7
:104BD0002800618A6068405C21680885608A401C02
:104BE00080B26082A189884200D36782A08A401E79
:104BF000A082680613D5700611D5A08AF0B3618A29
:104C00006068405C21680885608A401C80B26082D0
:104C1000A189884200D36782A08A401EA0822068B2
:104C2000016A41F0010101622068016A41F002015C
:104C300001622068016A41F0040101622068016A92
:104C400041F0080101622068016A41F0100101622F
:104C50002068016A41F0400101622068016A41F464
:104C6000807101622068016A41F40071016220686C
:104C7000016A41F400310162206800E015E0016A38
:104C800041F4801101622068016A41F02001016253
:104C9000BDE8F0812068016821F080010160206892
:104CA000016841F040010160A3E72068016821F03C
:104CB00040010160206A00B1804784F82870AEE7A7
:104CC0001A494FF480621848086001F12C004860CE
:104CD00000F58060886000208A81CA81088248824D
:104CE000C882088348838882C8610862486281F864
:104CF000280001F62C010E4B0B6001F12C034B60D8
:104D000001F22C438B608A81CA8108824882C88262
:104D1000088348838882074ACA61074A0A62074AA9
:104D20004A6281F828007047001001400402002404
:104D3000004800405540000861400008514000080C
:104D4000FEE7000010B5124C0320002120616061D5
:104D500010A0A06104F1A800E0614FF48060A1629E
:104D600020620CA06162E162206604F595606066D5
:104D700010202167C4E91A01E01D616708A1FBF753
:104D800097FB08A12046FBF793FB2020A07110BDE4
:104D9000902400245465726D696E616C00000000FF
:104DA0005254540053454747455200000269C168B8
:104DB0008A4203D88068401A104400E0501A401E0E
:104DC00070472DE9F047C4681746894605464FF0FD
:104DD00000082869A04201D9061B02E0A968201A30
:104DE0000E1AA868761E001BB04200D80646BE42C6
:104DF00000D33E466868324649462044FBF700FB34
:104E0000A868BF1B3444A042B044B14400D1002480
:104E1000EC60002FDDD14046BDE8F0872DE9F04180
:104E2000044688461646D4E90207E168C51B606857
:104E3000B542084406D94146FBF7E2FAB819E060EA
:104E4000BDE8F0812A464146FBF7DAFA761B606836
:104E500008EB05013246FBF7D3FAE660F0E7000005
:104E60000FB4054B10B503A9044A029800F018F9D5
:104E700010BC5DF814FB000015710008CC01002483
:104E80000FB41CB50246002007AC00290BD0491E08
:104E9000CDE90021054B6A462146069800F000F94D
:104EA000009A002111701CBC5DF814FBCF5700085C
:104EB0007CB5044600201D46164600290BD0491E2D
:104EC000CDE90041044B6A462946304600F0E8F837
:104ED000009A002111707CBDCF5700080907090E08
:104EE000002804DB00F1E02080F80014704700F097
:104EF0000F0000F1E02080F8141D704702E008C8A0
:104F0000121F08C1002AFAD170477047002001E043
:104F100001C1121F002AFBD1704700002DE9FF5F7D
:104F200082B00021DDE90430020DDDF840B003431A
:104F300018D044F61050A2F2FF32424315141198D3
:104F400001281FD0A5EB0B00401C5FEA000A4FF0C0
:104F500000064E4FDFF83891B046504615D5CAF1DD
:104F6000000413E0119801244AA3012801D16FEA3B
:104F70000B010298119AC0E90031C0E9024206B063
:104F8000BDE8F09FCBF10000DFE704460021404A76
:104F9000491842EB0450CDE9001012E0E00707D0B9
:104FA00032463B4640464946FBF767FB804689460A
:104FB00032463B4610461946FBF75FFB06460F4656
:104FC0006410002CEAD1DDE90401DDE90023BAF127
:104FD000000F06DAFBF751FB42464B46FBF74DFB51
:104FE00005E0FBF7BCFB42464B46FBF7B8FB04462B
:104FF0000E460022284BFBF739FC03D84FF0FF3058
:10500000014607E00022254B20463146FBF78EFA89
:10501000FBF714FC102409E0002C0ADB0A22002311
:10502000FBF7B8F9039B30321A55641E50EA0102AF
:10503000F2D1641C039AC4F111031444119A012A99
:1050400003D0012208430DD10AE0084304D0002018
:105050004FF0110B119072E7A3EB0B056D1E0DE0E5
:105060005B4504DD4FF0000205F1010504E003DAC1
:105070004FF00002A5F10105002AECD00298119929
:10508000C0E90231C0E9004579E7000000001440A2
:105090000000F03F300000000000F0430000E03F5F
:1050A0002DE9FF4F95B09B468946064600250FE245
:1050B000252877D100242746F84A0121059400E0ED
:1050C000044316F8013F203B01FA03F01042F7D1E8
:1050D00030782A2811D06FF02F033078A0F13002F9
:1050E000092A16D8059A44F0020402EB820203EB67
:1050F00042021044761C0590EFE759F8042B059204
:10510000002A03DA504244F40054059044F00204AB
:10511000761C30782E2816D116F8010F44F00404BE
:105120002A280DD06FF02F023078A0F13003092B20
:1051300009D807EB870302EB4303C718761CF3E794
:1051400059F8047B761C30786C280FD006DC4C288C
:1051500017D068280DD06A2814D104E0742810D024
:105160007A280FD10DE044F400140AE044F48014CE
:1051700001E044F440147278824202D104F58014B4
:10518000761C761C307866280BD013DC582877D034
:1051900009DC002875D04528F6D04628F4D04728E9
:1051A0001AD19DE118E0632835D0642879D06528AC
:1051B00012D195E1702873D008DC6728F1D06928F6
:1051C0006FD06E280DD06F2806D1B5E073282CD093
:1051D000752875D0782874D05A46179990476D1C59
:1051E00075E1C4F30250022809D003280DD0D9F884
:1051F000001004280DD00D6009F1040967E1D9F809
:105200000010EA17C1E90052F6E7D9F800100D8046
:10521000F2E70D70F0E719F8041B8DF8001000207C
:105220008DF80100EA46012003E059F804AB4FF085
:10523000FF3061074FF0000102D40DE008F10101D9
:105240008846B9420FDA8045F8DB1AF808100029C1
:10525000F4D108E008F1010188468142FADB1AF82E
:1052600008100029F6D105985B46A0EB08072146F7
:105270003846179A00F094FA284400EB080507E036
:105280004DE029E10DE01AF8010B5A4617999047B5
:10529000B8F10108F7D25B4621463846179A13E168
:1052A00042E00A220092C4F302524FF0000A022A9E
:1052B00008D059F804CB032A4FEAEC710AD00DE06C
:1052C00029E02AE009F1070121F00702F2E802C112
:1052D000914609E00FFA8CFC4FEAEC71042A03D1E5
:1052E0004FFA8CFC4FEAEC71002907DA0A460021DC
:1052F000DCF1000C61EB02012D2202E0220504D555
:105300002B228DF80420012203E0E20701D02022A5
:10531000F7E7904659E00A2102E010220DE0102143
:105320004FF0000A00910BE010224FF0000A44F009
:1053300004040827009203E008224FF0000A0092BC
:10534000C4F30252022A05D059F804CB0021032AE3
:1053500008D009E009F1070121F00702F2E802C1D3
:10536000914605E01FFA8CFC042A01D10CF0FF0CD9
:105370004FF00008220728D5702806D0009B83F044
:10538000100353EA0A0305D00EE040228DF80420F2
:10539000012208E05CEA010206D030228DF80420E8
:1053A0008DF8050002229046009B83F0080353EA23
:1053B0000A030AD15CEA010201D1620705D5302255
:1053C0008DF804204FF001087F1E582804D034A027
:1053D00003900EA802900DE036A0F9E75346604610
:1053E000009AFAF7D7FF84460398825C0298401E21
:1053F000029002705CEA0100F0D1029806A9081A36
:1054000000F1200A600702D524F4803400E001276F
:10541000574502DDA7EB0A0000E0002000EB0A017F
:10542000009005984144401A0590E00306D45B467D
:105430002146179A059800F0B3F90544002706E0C5
:1054400001A85A46C05D179990476D1C7F1C4745BF
:10545000F6DBE0030CD55B462146179A059800F071
:105460009FF9054404E030205A46179990476D1C77
:105470000099481E00900029F5DC08E00298029986
:105480005A460078491C0291179990476D1CBAF151
:105490000001AAF1010AF1DC65E100000928010020
:1054A000303132333435363738396162636465669A
:1054B000000000003031323334353637383941425C
:1054C000434445460000000000F058F90544761CAE
:1054D000307800287FF4ECAD19B02846BDE8F08F95
:1054E000620700D4062709F1070222F0070CFCE846
:1054F0000223E14603F000485FEA080C02D00FF2F5
:10550000702C0DE05FEA045C02D50FF2682C07E016
:105510005FEAC47C02D00FF2602C01E0AFF2700CA5
:105520004FF0FF3823F00043CDF850C065280CD071
:1055300006DC452809D046281DD047283DD13DE04E
:10554000662818D067287ED138E00021112F01DBB2
:10555000112000E0781CCDE9000106A90EA8FFF794
:10556000DDFCDDE90F010E9A03910021009207F1A5
:10557000010A04914DE04FF000400097CDE9011081
:1055800006A90EA8FFF7CAFCDDE90F0203920E9BE5
:1055900011990022DDF80CA00093049211B9791C36
:1055A00000EB010AB7EB0A0004D4C0F1FF3007F1A9
:1055B000010A0490AAEB0700019044E0012F00DAF1
:1055C00001270021112F01DD112000E03846CDE92F
:1055D000000106A90EA8FFF7A1FCDDE90F010E9A54
:1055E0000391002104910092BA4621070CD403993B
:1055F000514500DA8A46BAF1010F05DD009AAAF199
:105600000101515C302908D0B84202DA10F1040FD0
:1056100006DA0121CDE9011015E0AAF10101E9E75F
:10562000002805DC049901440491AAEB000102E082
:10563000411C514500DD8A460499401A401C0190E6
:105640004FF000400290200704D40198504501DB40
:10565000CDF8048000208DF84F0002980DF14F071F
:10566000B0F1004F25D02B200E9002984FF0020889
:1056700000280CDA404202902D200E9007E00A210B
:105680000298FAF71EFF3031029007F8011DB8F1B9
:105690000001A8F10108F2DC02980028EFD1791E80
:1056A0000E980870307800F0200040F0450007F8B0
:1056B000020D12A8C01B00F107081498007800B171
:1056C000012000EB0A01019801EBE07105984144CB
:1056D000401A401E0590E00306D45B462146179A07
:1056E000059800F05DF805441498007818B15A4602
:1056F000179990476D1CE00324D55B462146179A05
:10570000059800F04DF805441CE00498002807DBDC
:10571000DDE90301884203DD0098405C179901E050
:10572000179930205A469047049805F10105401C0E
:1057300004900198401E019004D12E205A461799DA
:1057400090476D1CBAF10001AAF1010ADDDC05E009
:1057500017F8010B5A46179990476D1CB8F10001D4
:10576000A8F10108F4DC5B462146179A0598ABE6E0
:105770002D0000002B000000200000002DE9F0416A
:10578000044600251E461746880404D405E0394621
:105790002020B0476D1C641EF9D52846BDE8F08175
:1057A0002DE9F041044600251E469046C80301D568
:1057B000302700E02027880404D505E0414638461C
:1057C000B0476D1C641EF9D52846BDE8F0814A68D3
:1057D000002A06D00A68531C0B6010704868401EEF
:1057E0004860704710B5FEF7E1FAFBF71BF9FCF7CC
:1057F00043FCFEF755FD00F027F8BDE8104000F02F
:1058000001B800000E4800B587B0016841F0020100
:1058100001600068694600F00200059001200190D7
:105820000290032003904FF4804000900548FCF75D
:1058300017FB07B001205DF804EB00F00FB8000083
:10584000E04402580004025810B5FFF739FAFEF799
:1058500031F9BDE81040FEF7DDBB0000012804D19E
:10586000002281030148FCF7F3BB70470004025893
:10587000012803D181030248FCF7E6BB7047000012
:105880000004025800B5A1B0CDE90001002002904B
:10589000CDE90302CDE905300790089009900A9000
:1058A0000B900C900D906846FEF75CF8002804D031
:1058B0004FF44B7102A0FBF757FC21B000BD000074
:1058C0002E2E5C2E2E5C557365725C6273705C7359
:1058D00072635C6273705F756172745F6669666F34
:1058E0002E63000070B50C460546880707D00DA052
:1058F000FFF7B6FA4FF4B67112A006F097FB1C3C06
:1059000006F026FC06462946204603F0B3FDE8686B
:1059100000682060E86804603046BDE8704006F02A
:105920006FBC00006D656D705F667265653A206DD5
:10593000656D2070726F7065726C7920616C69673B
:105940006E6564002E2E5C2E2E5C557365725C6C49
:105950007769705C7372635C636F72655C6D656DB3
:10596000702E63002DE9F04116460F46054606F0FD
:10597000EFFB8046E8680468DCB12946204603F066
:1059800079FDE968206808600020A660C4E9000786
:10599000A00707D009A0FFF763FA4FF48C7110A09D
:1059A00006F044FB404606F02BFC04F11C00BDE869
:1059B000F081404606F024FC0020F8E76D656D702C
:1059C0005F6D616C6C6F633A206D656D70207072F5
:1059D0006F7065726C7920616C69676E6564000038
:1059E0002E2E5C2E2E5C557365725C6C7769705C34
:1059F0007372635C636F72655C6D656D702E6300BE
:105A00000149487070470000C40100242DE9F047A7
:105A1000184F804600250C467878C8B17868AA46A9
:105A2000B9460119012918D9C0F1010608EB050191
:105A300032464844FAF7E4FC7868A41B35448119DF
:105A40000C48796000F038FA5046C7F804A0E8E73F
:105A50004046BDE8F04700F02FBA7A6808EB050130
:105A600009EB02002246FAF7CBFC78682044786004
:105A7000BDE8F087C401002410B500F01BFA00282F
:105A80000ED1012000F0D4F90648002480F84E40E1
:105A900080F84F4080F85040052000F017FA20466B
:105AA00010BD0000643D01240FB42DE9F04F8BB010
:105AB0008B4605460846FAF7E7FC00240A94052DB4
:105AC0000746A1460994059406940794089408D9BA
:105AD000A74840F28D120368002B7DD0A6A0A549EF
